:020000040800F2
:100000000040002069550008512F0008532F0008B8
:1000100000000000000000000000000000000000E0
:10002000000000000000000000000000552F000844
:100030000000000000000000572F0008592F0008A2
:10004000B9550008B9550008B9550008B955000858
:10005000B9550008B9550008B9550008B955000848
:10006000B9550008712F0008B9550008B9550008A6
:10007000612F0008852F0008952F0008B95500084A
:10008000B9550008B9550008B9550008B955000818
:10009000B9550008B9550008B9550008B955000808
:1000A000B9550008B9550008B9550008B9550008F8
:1000B000B9550008B9550008B9550008B9550008E8
:1000C00010B5064C2378002B07D1054B002B02D02E
:1000D000044800E000BF0123237010BDD8000020B9
:1000E00000000000405E0008044B10B5002B03D058
:1000F0000349044800E000BF10BDC04600000000F6
:10010000DC000020405E0008002243088B4274D3CC
:1001100003098B425FD3030A8B4244D3030B8B4208
:1001200028D3030C8B420DD3FF22090212BA030C11
:100130008B4202D31212090265D0030B8B4219D3F2
:1001400000E0090AC30B8B4201D3CB03C01A524112
:10015000830B8B4201D38B03C01A5241430B8B425A
:1001600001D34B03C01A5241030B8B4201D30B0343
:10017000C01A5241C30A8B4201D3CB02C01A52416A
:10018000830A8B4201D38B02C01A5241430A8B422D
:1001900001D34B02C01A5241030A8B4201D30B0216
:1001A000C01A5241CDD2C3098B4201D3CB01C01A30
:1001B000524183098B4201D38B01C01A524143093A
:1001C0008B4201D34B01C01A524103098B4201D328
:1001D0000B01C01A5241C3088B4201D3CB00C01A95
:1001E000524183088B4201D38B00C01A524143080D
:1001F0008B4201D34B00C01A5241411A00D2014632
:10020000524110467047FFE701B5002000F006F8A4
:1002100002BDC0460029F7D076E770477047C04658
:100220008446081C6146FFE71FB500F06DFB0028FF
:1002300001D40021C8421FBD10B500F0EFFA4042C2
:10024000013010BD10B500F05FFB002801DB00207D
:1002500010BD012010BDC04610B500F055FB0028B0
:1002600001DD002010BD012010BDC04610B500F01A
:10027000FDFA002801DC002010BD012010BDC046A1
:1002800010B500F0F3FA002801DA002010BD0120BB
:1002900010BDC0469E2110B5C905041CFFF7F0FF34
:1002A000002803D1201C00F075FE10BD9E21201CEB
:1002B000C90500F0ABFC00F06DFE80231B069C46D8
:1002C0006044F2E7F8B54746CE4643025B0A440075
:1002D000C20F9C464800DD004B02240E5B0A000E54
:1002E00080B5984626009146C90FDB00271A8A423E
:1002F00029D0002F15DD00284AD1002B00D095E031
:10030000ED08FF2C00D188E06B025B0AE6B25B02CD
:10031000F605580A3043D20710430CBC9046994664
:10032000F8BD002F00D087E0601CC0B2012800DCBF
:10033000B6E0EE1A720100D5C5E0002E3DD10022D4
:1003400000260023E3E7002F00DC96E000285DD0C4
:10035000FF2C60D08022D20413431B2F00DDECE081
:100360002022D21B18009340F8405A1E93410343A9
:10037000ED186B017BD50134FF2C00D1B7E00122D1
:1003800007262A406B089A4D1D4015432E4029E050
:10039000FF2CB5D08022D20413431B2F00DDB2E026
:1003A0002022D21B19009340F9405A1E93410B435F
:1003B000ED1A6B015BD5AD01AE09300002F060F8BB
:1003C00005388640844265DC041B3300202001345C
:1003D000E340041BA640751EAE41334307261D00B3
:1003E00000241E4001224B461A40002E04D00F2349
:1003F0002B40042B00D004356B0100D480E701347E
:10040000E6B2FF2C2FD1FF26002380E7002B52D12C
:10041000FF2C00D074E70A00ED08002DF3D08023F4
:10042000DB032B435B025B0AFF2670E7013F002FD3
:10043000BED0FF2CB1D163E7002C47D0FF2869D094
:100440008024E4047A4225431B2A00DDC5E02C0009
:100450002026D440B21A95406A1E954125435D1B63
:1004600004008946A5E7AB015B0A50E7002401229E
:100470004B461A406B07BAD142E7002F3BD10134FB
:10048000E0B201284ADDFF2CBDD00726ED186D082B
:100490002E40A7E70723574D241A35401E40A1E7F9
:1004A000002C1BD1002D6ED1002B00D19AE00A0048
:1004B0001D003C0024E7013F002F00D158E7FF2C2E
:1004C00000D04AE7A7E75E1B894676E7002D1CD1DE
:1004D0000A00FF281FD004001D0011E7002D5DD188
:1004E000002B17D180230022DB03FF260FE70A0031
:1004F000FF2600230BE7002C21D1002D66D1FF2819
:10050000E9D11D0087E7012352E77A1CA7D0FA43FF
:10051000FF2899D10A001D00FF24F1E6002E21D109
:10052000002D4FD0002B4CD0ED186B019ED5314BD8
:1005300007362E4001241D4054E7012318E7FF2809
:10054000DFD08024E4047F4225431B2F4DDC20268E
:10055000F61B2C00B540FC406A1E95412543ED1862
:10056000040006E7002DCCD0002B00D153E78021FA
:100570006046C903084203D04046084200D11D002E
:100580000121114047E7002B00D1B9E6EA1A5001DA
:1005900025D507265D1B2E40894623E7FF24002B27
:1005A00000D1ADE680226046D203104204D040461E
:1005B000104201D11D00894601224B46FF241A40FA
:1005C0009EE62B00DD080A0000249DE67A1CC6D0BA
:1005D000FF43FF28B9D11D001DE701253FE7151E88
:1005E00000D044E70022002391E60125B7E7C0468A
:1005F000FFFFFF7DFFFFFFFBF8B557464E46454620
:10060000DE464402E0B546008846640A360EC70F4F
:10061000002E63D0FF2E24D08023E400DB041C4393
:10062000002399469B467F3E434642465D02D20FD9
:100630005B006D0A1B0E9046924665D0FF2B55D08D
:1006400080220021ED00D2047F3B1543F61A434679
:100650004A467B400F2A00D98DE06D4892008258AF
:100660009746002C54D108239946063BFF269B460B
:10067000DAE70025534602291BD0032900D1BFE049
:10068000012928D030007F30002820DD6A0704D0FF
:100690000F222A40042A00D004352A0103D5300055
:1006A0005C4A80301540FE2803DCAC01640AC2B20B
:1006B00001E0FF2200246402D205600ADB07104338
:1006C00018433CBC90469946A246AB46F8BD012271
:1006D000101A1B287CDD00220024ECE7002C1DD121
:1006E00004239946033B00269B469DE7FF3E002DD1
:1006F00020D1022143464A467B400A430F2AD8D8DC
:100700004548920082589746002D19D10121F1E702
:100710000C239946093BFF269B4685E7200001F004
:10072000AFFE7626431F9C4000237642361A994638
:100730009B4679E74A4603231A439146032186E7FD
:10074000280001F09DFE431F36189D40763600219B
:100750007DE780240023E403FF22ACE7002580230B
:10076000DB031C4228D01D4226D12B435C02640AC5
:100770004346FF229FE762016C01A24224D21B2163
:100780000025013E012710006D005200002801DB0A
:10079000944201D8121B3D4301390029F3D11400C2
:1007A000621E944125436DE7BA46594625005346DB
:1007B000022900D061E77CE78023DB031C4364024D
:1007C000640A3B00FF2276E7121B1A210125D9E7B4
:1007D0009E362A00B5402C00C240651EAC41144331
:1007E000620704D00F222240042A00D004346201A0
:1007F00003D4A401640A00225DE7012200245AE721
:100800008024E4032C436402640AFF2253E7C046B9
:10081000845E0008FFFFFFF7C45E000870B5420069
:100820004E024C0045026D0A120EC30F760A240ECA
:10083000C90FFF2A0FD0FF2C11D00120A24200D0F7
:1008400070BDB542FCD18B420DD0002AF8D12800F2
:10085000451EA841F4E70120002DF1D1EBE701206E
:10086000002EEDD1E9E70020EAE7C04670B54A0066
:100870004E02450244006D0A240EC30F760A120E82
:10088000C90FFF2C15D0FF2A0ED0002C15D1002A3D
:1008900001D1002E1CD0002D14D08B4227D0022075
:1008A000013B1840013870BD002EEED002204042BE
:1008B000F9E7002DFAD1FF2A0ED0002A0ED1002E22
:1008C000EDD00BE001230139994308000130EAE73C
:1008D0000020002DE7D0E2E7002EE7D18B42DED1E9
:1008E000944205DD0221581E08400138DBE7002450
:1008F000A24204DCB542D2D80020B542D3D2581E61
:10090000012398430130CEE730B5420044024D0246
:10091000C30F4800640A120E6D0A000EC90FFF2AA9
:1009200012D0FF280CD0002A12D1002819D1002D96
:1009300017D1002C2BD00220013B1840013826E0B3
:10094000002DF0D0022022E0002CFBD1FF281FD088
:1009500000281FD1002D1DD10220013B1840013875
:1009600015E0002C0ED08B42E5D10022904204DC31
:10097000AC42E0D80020AC4209D2581E0123984373
:10098000013004E00123013999430800013030BDF2
:10099000002DD7D18B42CED18242E7DD0221581EF5
:1009A00008400138F3E7C046F0B54E465746454685
:1009B000DE46E0B543025B0A450083B00F1C994652
:1009C0002D0EC60F002D57D0FF2D24D08020DB0028
:1009D000C0041843002381469A469B467F3D7C0213
:1009E0007A00FB0F640A120E984623D0FF2A4BD0E0
:1009F000E30080240020E4047F3A1C43AD186B1C04
:100A000047460193534677403A000F2B48D87D491B
:100A10009B00CB589F46002B00D085E008339A46B8
:100A2000063B9B467C027A00FB0FFF25640A120EF0
:100A30009846DBD1002C00D090E0524601231A43A7
:100A400092460120DBE74C4658461700022824D086
:100A5000032800D1CFE00022002301284DD1580205
:100A6000D205400AFF071043384303B03CBC904610
:100A70009946A246AB46F0BD002B5BD104239A46B3
:100A8000033B00259B46AAE7FF35002C60D1524668
:100A900002231A4392460220B1E7FF220023DEE739
:100AA0004B461B0C9C464B462604360C18046146EC
:100AB0003300220C6446000C43434E4350435443DE
:100AC00080191A0C1218964203D9802149028C46CB
:100AD00064441B041B0C1004C01883015E1EB34148
:100AE000800E1843130C1B199B0103431C002301A8
:100AF00079D5012362081C401443019A7F32002AF1
:100B00004DDD630704D00F232340042B00D00434B1
:100B1000230103D53C4B019A1C408032FE2ABCDCE9
:100B2000A3015B0AD2B29AE70C239A46093BFF2540
:100B30009B4654E7180001F0A3FC4A46431F762564
:100B40009A4000236D4291462D1A9A469B4646E7ED
:100B5000524603231A439246032050E7200001F037
:100B60008FFC431F2D1A9C40763D002047E78023D1
:100B70000027DB03FF2272E7424666E74C4632005D
:100B8000584662E780234A46DB031A4222D01C42C1
:100B900020D123435B025B0A4746FF225FE7012324
:100BA0009A1A1B2A21DC23000199D3409E318C40E4
:100BB0001A0023005C1EA34113435A0704D00F22DE
:100BC0001A40042A00D004335A0111D49B015B0A55
:100BD000002244E780234A46DB0313435B025B0A9F
:100BE0003700FF223BE7019587E70022002336E725
:100BF0000122002333E78023DB0323435B025B0AEC
:100C0000FF222CE7045F0008FFFFFFF7F8B5474617
:100C1000CE464400C20F80B547024802400A8446CF
:100C2000664648007F0A240EF60025009046FB0029
:100C3000000EC90FB146FF2800D185E001267140A2
:100C4000261A914257D0002E43DD002800D07FE0C5
:100C50004946002900D1AAE0013E002E00D0F7E06D
:100C60005B1A5A0100D48BE09B019C09200001F023
:100C700007FC05388440854200DDD3E0451B230096
:100C800020200135EB40451BAC40621E94412343BC
:100C9000072400251C40012241460A40002C04D0B4
:100CA0000F211940042900D00433590100D480E0F9
:100CB0000135ECB2FF2D00D0A3E0FF2400235B023E
:100CC000E405580AD207204310430CBC90469946CD
:100CD000F8BD002E74D1601CC0B2012800DCA7E072
:100CE0004A469C1A620100D5B6E0002CBED1002213
:100CF00000240023E3E7002E00DC85E0002846D036
:100D0000FF2C49D080224846D2041043814601225C
:100D10001B2E09DC20204C46801B84404A462000C4
:100D2000F240441EA04102439B185A0128D50135C8
:100D3000FF2D00D1A8E00122072494491A405B0846
:100D40000B4013431C40A6E7002E00D078E775E760
:100D5000FF2C54D080224946D204114389460122F7
:100D60001B2E09DC20214846891B88404A46010089
:100D7000F240481E81410A439B1A5A0100D573E78D
:100D8000012241460A40590700D089E711E0484650
:100D9000002858D1FF2C0CD1DB08002B00D18CE7A8
:100DA0008020C00303435B025B0AFF2487E7FF2C1C
:100DB00025D0DB08FF2DF0D05B025B0AECB27EE7AA
:100DC000002C4DD0FF2818D08024E4047242234325
:100DD0001B2A00DDC4E01C002025D440AA1A934041
:100DE0005A1E934123434A460500D31A884638E7E2
:100DF000721CF8D0F243FF28EAD10A004B46FF25C7
:100E0000D7E79B015B0A5AE7002E41D1651CE9B286
:100E1000012945DDFF2D00D14FE707244B445B0836
:100E20001C4038E707225A4B2D1A2340144032E762
:100E3000002C1DD1002B7AD14B46002B00D191E024
:100E40000A000025B5E7013E002E19D14B446CE79E
:100E5000FF2C84D1FF25ACE74A468846D41A05E723
:100E6000002BC5D10A00FF28C8D005004B46A0E7DB
:100E7000002B49D14B46002B77D00A00FF2598E77D
:100E8000FF2C00D043E787E70A00FF24002316E782
:100E9000002C15D1002B57D1FF28E6D14B467BE71C
:100EA000002C20D1002B57D04946002953D04B4469
:100EB0005A0168D50724364A1C4001251340EAE64A
:100EC000FF28EBD08022D204764213431B2E53DC42
:100ED0002025AD1B1A00AB40F2405C1EA34113431A
:100EE0004B44050021E7002BD8D04946002900D10A
:100EF00052E78021C9030F4200D14DE76046084206
:100F000000D049E74B4647E74846FF25002800D177
:100F10004FE78022D203174204D06046104201D12D
:100F20004B46884601224146FF250A4041E7484694
:100F300000281FD01A1A500120D54A460724D31A78
:100F40001C4088460025A6E6741CC9D0F643FF283D
:100F5000BCD14B4620E799464B460025DB082BE7E2
:100F6000012340E700220023A9E680230022DB03BF
:100F7000FF24A4E600251CE70123B1E7002AF1D0F5
:100F800013000025FCE60025FAE6C046FFFFFF7DC2
:100F9000FFFFFFFB41024200C30F490A120E00206F
:100FA0007E2A0DD99D2A0CD8802000040143952A61
:100FB0000ADC9620821AD1404842002B00D108005A
:100FC0007047034A9818FBE7963A9140F4E7C04609
:100FD000FFFFFF7F70B500283DD0C317C5185D40E7
:100FE000C40F280001F04CFA9E22121A962A07DC40
:100FF000D2B2082833DD083885406802400A23E071
:10100000992A0BDD052329001B1AD94003001B3345
:101010009D402B005D1EAB4119430D00052801DDED
:10102000431F9D402B000F490B406E0709D00F2630
:101030003540042D05D004335D0102D59F220B40BD
:10104000121A9B01580AD2B24002D205400AE407A4
:101050001043204370BD002400220020F4E7680202
:10106000400AF1E7FFFFFFFB70B5041E34D001F02A
:1010700007FA9E22121A962A07DCD2B208282EDD21
:10108000083884406002400A21E0992A09DD030003
:1010900021001B3399404B1E994105231B1ADC404C
:1010A0000C43052801DD431F9C4023000D490B40E4
:1010B000650709D00F252C40042C05D004335C01B2
:1010C00002D59F220B40121A9B01580AD2B240024D
:1010D000D205400A104370BD00220020F7E76002ED
:1010E000400AF4E7FFFFFFFBF0B55746DE464E46E9
:1010F0004546E0B5834607000E03480085B092469A
:101100001C00360B400DCD0F002800D19DE0954B03
:10111000984239D08023F6001B041E43924A7B0F6D
:10112000334399469446030063440093002300260A
:10113000FF00029323031B0B98466300E40F524603
:101140005B0D019400D1B3E086498B4200D19EE053
:101150004246D100802212040A435146490F1143EE
:101160008B46814952468C4600996344CB1A002134
:10117000D20000932B0063409A460F2E00D905E160
:101180007A4BB6009B599F465B463343994600D045
:10119000B8E002230826002700900293CAE7CB4656
:1011A0003A0002990195019B9A46022927D003290A
:1011B00000D180E2012944D06D49009B8C466344F4
:1011C0001C00002C38DD530700D013E2D2085B4628
:1011D000DB0109D55946674B19408B468021C90070
:1011E0008C46009B63441C00634B9C4207DC5B46BF
:1011F00064055F075B0217431B0B620D02E00023CF
:101200000027584A00211B031C0B0B0D1B05234311
:1012100014055A4A380013401C4353466400DB0748
:1012200064081C43210005B03CBC90469946A24688
:10123000AB46F0BD0122524201231B1B382B00DCC0
:10124000ADE1002200230027DCE75B4633439946EB
:101250005ED0002E00D18AE1300001F011F90300C8
:101260000B3B1C2B00DD7BE11D22D31A5A460100EB
:10127000DA4008398E4013005F46334399468F4069
:101280003F4B00261B1A00930023029352E741466E
:1012900053460B433B499B468C46009B634400935B
:1012A0005B46002B3BD1022300221E43022161E753
:1012B000434613439B4637D04346002B00D162E19F
:1012C000404601F0DDF803000B3B1C2B00DD53E131
:1012D00002004146083A914088461D21CB1A5146EA
:1012E000D9400B0041460B439B46534693401A009E
:1012F000009B25499C46604403008C466344009350
:10130000002137E70323B14600900C26029311E732
:101310000023009301330426002702930AE70323E6
:10132000C3461E43032125E701331E43002201214A
:1013300020E700239A46802300271B03094A61E720
:10134000802349461B03194200D1E2E05946194265
:1013500000D0DEE00B431B0317001B0BA246014A23
:1013600050E7C046FF07000001FCFFFF445F000894
:10137000FF030000FFFFFFFEFE070000FFFF0F80DE
:101380000DFCFFFF01F8FFFFF3030000D94500D972
:10139000CBE000D1C6E03C0048460027009B013B63
:1013A00000935B46160E1B021E431302984633043D
:1013B0001B0C9946310C0191FEF72CFF4A46424323
:1013C0000B04210C050019438A4207D98919013DF4
:1013D0008E4203D88A4201D9851E8919881A01993B
:1013E000FEF718FF09048C464A462104644642432E
:1013F000090C030021438A4204D98919013B8E421A
:1014000000D8F1E02D041D43AB464346891A4246FD
:10141000280C12041D0C5B46140C22001B041B0C30
:101420005A4303946B434443029568431B19150CBC
:10143000EB189C4203D980246402A44660441C0C2F
:1014400015041B042D0C20185D19814277D373D02D
:101450000C1AA24A7D1BAF42BF419446009B7F42BB
:101460006344E01B1C00864200D1DBE00199FEF7DB
:10147000D1FE4A4642430B04290C070019438A4215
:1014800007D98919013F8E4203D88A4201D9871EA4
:101490008919881A0199FEF7BDFE09044A46894652
:1014A00029044D464243090C030029438A4207D9C7
:1014B0008919013B8E4203D88A4201D9831E8919BA
:1014C0003F04891A3A00039F1A43380013041B0C87
:1014D000584381460298150C6F43434345434846A1
:1014E000000C8446DB1963449F4203D980204002EC
:1014F0008446654448461F0C00041B04000C7D19FB
:101500001818A94200D284E000D17FE001231A43D9
:1015100057E680234A461B0313431B031B0BAA46B3
:101520006F4A6FE6BA4200D935E74B46DC075808E8
:101530007B081C43FF0734E70024AF4289D24744AD
:101540004745A4415B466442A4196418013BA64286
:101550001ED2A0426DD800D1B6E0241A9B4678E78F
:1015600003005A46283B9A400027914688E6584691
:1015700000F086FF203072E603005246283B9A4076
:1015800093460022B4E6504600F07AFF20309AE6F7
:10159000A642E2D1B845DCD9341A9B4659E71F2B45
:1015A00065DC504C0099A4465C46614408008C40C0
:1015B00011008240D940501E82410C4314435A46C8
:1015C000DA401300620709D00F222240042A05D016
:1015D0002200141D9442894149425B181A0262D5C7
:1015E0000122002300270DE68A4200D80AE7831E65
:1015F000891907E70F231340042B00D1E6E5171DD7
:101600009742924153429B44FA08E0E5002800D1FA
:10161000D7E57118531EB14227D3A94215D358D02C
:101620001A0073E7002B00DC04E6012300229B4430
:10163000CDE502234744474589415B429C464942E8
:1016400089190C19E344241A03E743465F00474510
:101650009B41B8465B429E19023A8919A94200D0C3
:1016600054E7404500D051E7ABE51A00F6E71F21EB
:101670005F4649420C1BE740202B07D01A49009BCC
:101680008C46634418005B4683401A43501E8241D7
:101690003A4307270023174009D00F2100231140A8
:1016A0001400042995D122005F075B021B0BD208AE
:1016B00017430022A6E5802359461B030B431B0357
:1016C00017001B0B064A9DE5BD42B2D89B4600247D
:1016D000BFE68045B9D31A00C3E7C046FF03000048
:1016E000FF0700001E0400003E040000F0B557464E
:1016F000DE464E464546E0B5834606000F034800E9
:1017000087B092461D003F0B400DCC0F002800D142
:101710006FE0DE4B984238D08023FF001B041F434C
:10172000730F3B430193DA4B0027994600239B46F6
:10173000F60081442B0369001B0B52469846490D65
:10174000ED0F002900D185E0D04B994200D173E024
:101750004346DA0080231B0413435246CC48520F01
:1017600084461343524600206144D200894421003C
:10177000694000918C46012149448A460F2F00D9C7
:1017800090E0C449BF00CF59BF465B463B4301933D
:1017900000D06AE102230827002681469B46C9E75C
:1017A00032005846019B61460091022800D175E045
:1017B000032800D1FEE1012800D02CE100230027FE
:1017C000002600253F032A0D3F0BB34812053A437C
:1017D00002401B051343009A5B00D1075B080B43D3
:1017E0003000190007B03CBC90469946A246AB4673
:1017F000F0BD5B463B43019300D12FE1002F00D1A8
:10180000A5E1380000F03CFE03000B3B1C2B00DD83
:1018100096E11D22D31A5A460100DA405E46083985
:101820008F4013008E403B4301939C4B00271B1AB3
:10183000994600239B467DE7414653460B43934917
:101840008C46E144002B00D01AE10222022017430B
:1018500000228CE7134300D10DE14346002B00D159
:1018600081E1404600F00CFE02000B3A1C2A00DD2C
:1018700072E10100434608398B4098461D239A1AAD
:101880005346D3401A004346134352468A404946C2
:10189000081A824989468144002068E77B4B00276B
:1018A00000268EE7140C1204120C1100370C3604BB
:1018B000350C794328008C462E00604360448346F3
:1018C00056432100300C80465846794340440291EB
:1018D000844506D98846802149028C46E044414629
:1018E00002913604010C360C00048B4681191E0C43
:1018F0001B041B0C0391190079438C462800754387
:101900006544A8465843050C45447743A94203D98A
:10191000802149028C466744290C8C46390000041A
:10192000000C2D042D186144AB44059159460491D7
:1019300001990F043F0C080C390051434243904673
:1019400002008C46090C8B4662437C4344445C4451
:10195000A04503D98021490288464244210C88468B
:1019600061460904090C8C463900594343437043CE
:101970007E430F0CF6182404BE19644442448C467E
:10198000B34203D980235B0298464044029B6146E0
:101990009846049B370443449B46AB45AD416B429C
:1019A0000D0405992D0C8C467F196744FD18A84637
:1019B0005D462D19A542A44193466442A446C34402
:1019C000DC448F42BF4198459B4193459241A445D9
:1019D000A4415B427F421F43360C52426442BF190E
:1019E0002243BF18624638184302D20D03991343AD
:1019F0006A020A43501E82416146ED0D2A434E029F
:101A00003243D90100D4B3E00126500832400243EA
:101A1000DE0732435B08224C5444002C62DD510740
:101A200009D00F201040042805D0101D904292418B
:101A300052429B180200D90104D580241948E400C1
:101A4000034054441848844200DD27E75E075B02E8
:101A5000D2081F0B630516435B0DB2E600239946BF
:101A60000133042700269B4664E603230197814641
:101A70000C279B465EE6012201201743002276E6F2
:101A8000032303201F43434671E6C046FF070000BF
:101A900001FCFFFF845F0008FFFF0F800DFCFFFFCC
:101AA000FF030000FFFFFFFEFE070000002380276A
:101AB00000933F030026434B83E6019B3200A4467C
:101AC000584670E6AC466EE6802701993F033942DE
:101AD0002DD03B422BD11F433F033F0B00951600F7
:101AE000384B6EE601252D1B382D00DD66E61F2DD7
:101AF00040DC35481C005044160082408440EE40D3
:101B0000501E824134431443EB40620709D00F2238
:101B10002240042A05D02200141D944280414042F4
:101B20001B181A023ED501230027002649E680270C
:101B3000019B3F031F433F033F0B0094214B40E6B3
:101B400003005A46283B9A40002601926DE658460B
:101B500000F096FC203057E603005246283B9A409E
:101B60001300002293E6504600F08AFC20307BE60A
:101B7000CA4650E71F201E004042041BE640202DAD
:101B800003D0124C5444A3401A43501E82413243A6
:101B900007260027164009D00F200023104014000C
:101BA0000428B9D122005E075B021F0BD20816433E
:101BB000002306E680273F031F433F033F0B160029
:101BC000004BFEE5FF0700001E0400003E0400007D
:101BD000F8B557464E464546DE460C000903E0B5CB
:101BE000490A460F5F0031431E03DB0F760A9B460E
:101BF000530F3343C84E6500C000E40FD2006D0D93
:101C0000A24681467F0D9C469046B74200D1B9E07E
:101C10005B46012673409B46EE1BA34500D183E043
:101C2000002E63DD002F00D0B1E06346134300D1E6
:101C300023E1731E002B00D0BAE1861A6346B0423E
:101C400080410125C91A4042091A0B0200D447E11C
:101C500049024B0A98464346002B00D189E1404691
:101C600000F00EFC0300083B1F2B00DD7CE120226E
:101C70003000D21A4146D040994002009E400A43AB
:101C80009D4200DD6AE15D1B6B1C1F2B00DD94E1B2
:101C9000202110003500C91A8E40DA408840DD400E
:101CA000711E8E4111000722284300250643324051
:101CB000002A09D00F233340042B05D0331DB34233
:101CC000B641764289191E000B0200D43DE26A1C1F
:101CD000914B55056D0D9A4200D119E18F4AF608D6
:101CE0000A40570752023743120B9BE0002E00D0E8
:101CF000C5E06E1C7605760D012E00DC48E16746D6
:101D0000861ACB1BB042BF417F42B8461F004346F4
:101D1000FF1A3B00B8461B0200D55FE137439AD15A
:101D200000220024002579E0002E00DCFAE0002FDC
:101D300000D18DE0784B9D4267D0802367461B041D
:101D40001F43BC46382E00DC52E1634613435A1E43
:101D500093411E1886428041404209180B0200D46C
:101D6000BEE06D4B01359D4200D1D2E06B4A730855
:101D70000A4001210E401E435108D30707221E438B
:101D8000324095E71E00164300D045E740E7624B1E
:101D90009D423AD0802367461B041F43BC46382E21
:101DA00000DDEBE01F2E00DC3AE133006746203B0C
:101DB000DF403B00202E05D04027BF1B6646BE40BB
:101DC000324390464646721E96413343DAE0002B7A
:101DD00000D114E26346134300D168E180234E072B
:101DE000C008C9081B030643194208D06046C00852
:101DF000184204D163460100D2085E071643F3007F
:101E00009946C900720F444D11434B46DE08424BC0
:101E10004F073743CA089D4200D16EE012036D059B
:101E2000120B6D0D00211203130B0A0D12051A433C
:101E30003B4B2D0513402B435B00E4075B0823431A
:101E4000380019003CBC90469946A246AB46F8BD06
:101E50006346134311D0731E002B00D007E1861890
:101E60008642804161444042091801250B0237D562
:101E700002257BE73E00614691463500C5E75C469A
:101E8000002D00D0E1E00B000343F3D0731C00D120
:101E9000ACE1214B9F4200D13AE1F343382B00DD06
:101EA0006FE11F2B00DD8CE120250E00ED1AAE4006
:101EB000B0460600AA46DE40454635432E0055464C
:101EC000D940A8406346451EA8415B1A9C46304352
:101ED000161AB242924163465242991A3D00B4E644
:101EE00007223240002A00D0E4E60B4BF6084F07E9
:101EF0003743CA089D4200D090E73B00134300D10E
:101F0000A6E180231B031A431203120B024D89E73B
:101F100015000022002785E7FF070000FFFF7FFF75
:101F2000FFFF0F80002E00D0C7E06B1C5E05760D12
:101F3000012E00DCF0E0C84DAB4200D1B9E08518BD
:101F40000A00854289416244494251180722CE075E
:101F50006D082E43490832401D00A9E6BF49ED1A1D
:101F6000114007223240A3E6320028388240002682
:101F700086E6300000F084FA203073E663461343AF
:101F80005A1E9341C61AB04280414042091A5CE68B
:101F90000E00674606431743002D5ED1002E00D089
:101FA000F3E0002F00D11EE15C46614691462CE72C
:101FB000A94FBE427BD01E00F1E610001F3DE84055
:101FC000202B03D04021CB1A9A401643731E9E410A
:101FD0000722064332400021002583E7161A634694
:101FE000B2428041591A40420B1A98465C4632E68A
:101FF0001F2E00DDABE02027BB1B9A4663465746E9
:10200000BB40994613004F46F3401F433B005746E1
:10201000BA40571EBA4113436246F240891898E607
:102020002027BB1B9A4663465746BB409946130080
:102030004F46F3401F433B005746BA40571EBA4134
:1020400013436246F240891A9CE7834B9F425FD05C
:1020500080252D047342294320E7002E0CD1002F48
:1020600000D1D0E05C46614691467B4DCDE67A4F8B
:10207000BE421CD01E0065E6002F18D0C0084E07D7
:1020800006438020C9080003014208D06346DC08EB
:10209000044204D12100DA46D2085E071643F30059
:1020A000994601245346C900720F11431C406A4DE2
:1020B000ABE61D0000220027B4E6002D59D10B002D
:1020C000034300D1D6E6731C00D1B2E0624B9F42BD
:1020D0001ED0F343382B6FDC1F2B00DD97E020254B
:1020E0000E00ED1AAE40B0460600AA46DE40454658
:1020F00035432E005546A840D940451EA8418C4482
:102100000643B61896429241514261443D0025E68D
:102110003D006146914678E60B000343002D00D058
:1021200055E6002BF5D06346134300D16DE68618C3
:102130008642804161444042091800220B0200D4CB
:10214000D0E6464B01351940B2E5B1465DE63300B5
:102150006746203BDF403B00202E05D04027BF1BB9
:102160006646BE40324390464646721E9641334311
:10217000EFE5394B9F42CBD080252D047342294394
:10218000A8E70843411E8841A2E6002F00D13CE6A3
:102190006346861ACF1AB0429B415B42FB1A9846AF
:1021A0001B024ED5161A6346B2429241591A524248
:1021B000891A5C4600227BE501430E00711E8E41A8
:1021C0009FE71D000E00203DEE40B046202B04D0BE
:1021D0004025EB1A99400843814648464346411E34
:1021E0008841184374E60022002417E6161A634655
:1021F000B2429241591A5242891A3D0025E5614680
:102200009146154D01E680220024120379E61D0057
:102210000E00203DEE40B046202B04D04025EB1AA6
:102220009940084381464E464346711E8E411E43E7
:1022300067E7861896429B4161445B42C9183D009E
:102240008CE547463743CED007224146324049E627
:1022500000273A00E6E5C046FF070000FFFF7FFFCA
:1022600070B500282DD0C317C5185D40C40F2800D5
:1022700000F006F9154B1B1A5B055B0D0A2815DDEE
:102280000B38854000222D032D0B002110002D035B
:102290000A0D2D0B12052A430D4D1B052A40134331
:1022A0005B00E4075B082343190070BD02002900AE
:1022B000153291400A000B21081AC5402D032D0B41
:1022C000E3E70024002300250022DEE71E040000CF
:1022D000FFFF0F804100090E4B1C70B5DBB24602B8
:1022E000750AC40F012B14DDE0239B006D07360B2C
:1022F000CB1800210A0D280012051C4D32435B0546
:102300002A405B0813435B00E4075B082343190082
:1023100070BD002914D1002D1ED0280000F0B0F8A7
:102320000A281CDC0B232A001B1ADA400300153391
:102330009D400F4B12031B1A5B05160B5B0DD8E774
:10234000002D06D0320B802636036D071643094B4D
:10235000CFE7084B0026CCE700230026C9E703009F
:102360002A000B3B9A400025E3E7C046FFFF0F80A1
:1023700089030000FF070000F0B54C00640D0B035B
:10238000621C5B0A460F5205C90F1E43C500520D61
:10239000012A29DD374BE718FE2F1CDC002F3BDD1F
:1023A0008001431E98410722F3006D0F03432B4326
:1023B0001A40002A04D00F221A40042A00D0043305
:1023C0008022D2041A4024D00137FAB2FF2F02D063
:1023D0009B01580A01E0FF2200204002D205400A7A
:1023E000C90710430843F0BD3543002C04D1002D2C
:1023F0000AD100220020F0E7002DECD08020C0039D
:102400003043FF22E9E7002400235B02580AE2B2CE
:10241000E3E7DB083C00F8E73B001733F3DB8023FE
:102420001B0433431E26F61B1F2E14DD02225242CC
:10243000D71B1A00FA401700202E04D00E4A9446EB
:102440006444A3401D432B005D1EAB4107223B4368
:102450001A400027ADE7094A2800A218954093408A
:102460006C1EA541F04007222B4303431A4000276E
:102470009FE7C04680FCFFFFA2FCFFFF82FCFFFF3E
:102480001C2101231B04984201D3000C10391B0AA4
:10249000984201D3000A08391B09984201D3000968
:1024A000043902A2105C40187047C04604030202BF
:1024B00001010101000000000000000000B589B02A
:1024C0001022002104A803F0A6F8144B59698020BB
:1024D0008002014359615A6902400192019A5A6986
:1024E0008021C9020A435A615B690B400293029B37
:1024F00018230393163B0593902003A9C00502F00F
:1025000007FD80235B01039300230493059303A934
:10251000034802F0FDFC09B000BDC04600100240B7
:102520000004004800B583B0094A516901231943EA
:102530005161526913400193019B0022002109203F
:1025400002F09EFE092002F0CBFE03B000BDC046A3
:102550000010024070B586B0264B5A6901263243FE
:102560005A615A6932400192019A9A698021890020
:102570000A439A619B690B400293029B0C22002143
:1025800003A803F048F81C4C1C4B23600025656031
:10259000A560E560266108236361A561E5612562A8
:1025A00065623833A3628023DB00E36226636663DF
:1025B000200000F07BFE039580235B01049302352D
:1025C000059503A9200001F041F8039603A9200016
:1025D00001F03CF8039503A9200001F037F805232A
:1025E000039303A9200001F031F8200000F0F2FC71
:1025F00006B070BD001002403805002000240140E4
:1026000010B50D4C0D4B23600D4B63600023A36090
:102610000122E26023616361A361E3612362200020
:1026200001F08EF90021200001F0B4FA0021200011
:1026300001F0DCFA10BDC046FC010020005400404F
:102640000E09002010B50D4C0D4B23600D4B63603F
:102650000023A3600122E26023616361A361E3615F
:102660002362200001F06CF90021200001F092FAB1
:102670000021200001F0BAFA10BDC0464802002037
:10268000005800405D3E302070B596B0354B9A69D9
:1026900080252D012A439A619B692B400193019B60
:1026A0001022002112A802F0B6FF0822002110A873
:1026B00002F0B1FF1C22002109A802F0ACFF1C228D
:1026C000002102A802F0A7FF274C284B2360656079
:1026D0000025A56080267601E66080239B002361AB
:1026E0006561813BFF3BA361200001F0A3FC1296D2
:1026F00012A9200001F0E0FD200001F0CFFC200035
:1027000001F0B2FC1095119510A9200001F0BCFE5B
:10271000602309932E3B0A930B950C950D950E950E
:102720000F95002209A9200001F044FD70230993B0
:102730000F4B0A930C2209A9200001F00DFD029510
:10274000039504950595069580239B0107930895AD
:1027500002A9200001F0BEFE200000F00BFD16B023
:1027600070BDC0460010024094020020002C0140C1
:10277000FA0F000010B50748074B036008234360B9
:10278000063B8360036100238361C361036201F040
:10279000E1FE10BD18030020005C0040F0B5C64605
:1027A00000B582B0734DE888FEF75EFCFFF792FD3E
:1027B0000022714BFEF798FC704A714BFEF796FFB2
:1027C0000022704BFFF704FA6F4A704BFEF78CFC47
:1027D000FFF7D2FD061C6E4C206168886D4F3B6888
:1027E0009846FEF7F7FB4146FEF710FA7968FEF7C8
:1027F000DBF86949FDF700FF011C301CFDF762FDA5
:10280000061C2060A888FFF72BFD00225A4BFEF71C
:102810006BFC5A4A5A4BFEF769FF584A5F4BFEF76A
:1028200065FFFFF7A9FDA0602888FFF719FD0022CA
:10283000514BFEF759FC514A514BFEF757FFFFF73A
:102840009BFDE06056496068FEF7AEF8051C5549EF
:10285000301CFEF7A9F8011C281CFDF733FD051CF0
:102860006060514B1C68DE6A311C201CFEF7CEF9FB
:10287000011C281CFDF704FD002853D0311C201C2E
:10288000FDF720FD011C281CFDF7E6FC002849D0BF
:10289000291C201CFEF7BAF9051C434F7860FC6820
:1028A000FE69311CFEF780F8011C201CFDF70AFDB3
:1028B000041C3F69391CFDF7D9FC002809D180238D
:1028C0001B06F9180F1C201CFDF7BCFC002800D1CA
:1028D000271C354CE760A168281CFEF797F9311CCE
:1028E000FDF78AFE061C6061216A281CFEF75CF871
:1028F0000190391C606AFEF757F8011C0198FDF73A
:10290000E1FC071CA16A301CFEF74EF8011C381CC4
:10291000FDF7D8FC2549FEF747F8FEF73BFB20837F
:10292000A5600BE0211C281CFDF796FC002818D0A0
:102930001D4B1F4A1A831C4B1E4A5A601A4B182201
:102940009A5E1B4B9A4212DC131C002A0DDB1BB251
:10295000154A1383184A1268536302B004BC9046A8
:10296000F0BD114B00221A83E5E70023EFE7104B7F
:10297000EEE7C046F400002000FEAF4066666666E3
:1029800066660A400000E03F7B14AE47E17A843F70
:10299000FC0000206400002000007A4466661A40B3
:1029A0006666663FD0CCCC3D3400002000207D45DB
:1029B000D20F0000000040419402002010B582B008
:1029C00011220E490E4802F01DFE00240D4801F0B0
:1029D000DDF8202806D0631C9BB20B4A944201D834
:1029E0001C00F3E7FA239B0000933223074A782167
:1029F000044801F00BF802B010BDC046C45F0008E7
:102A000020010020FC010020102700000000002011
:102A100010B582B000240B4801F0B8F8202806D089
:102A2000631C9BB2084A944201D81C00F3E7FA23C6
:102A30009B000093D123054A7821024800F0E6FF6D
:102A400002B010BDFC010020102700002001002072
:102A500010B5C0220021024802F0DDFD10BDC046C5
:102A60003101002030B55F281BDC0F2919DC012A59
:102A700018D0002A15D1CC1707231A00224052186B
:102A8000D2105500AA18550128181130640F0919E1
:102A90001940091B09B201228A400E490B5C93437D
:102AA0000B5430BDCC1707231A0022405218D21005
:102AB0005500AA18550128181130640F09190B4048
:102AC0001B1B1BB201229A4002490B5C13430B549F
:102AD000E7E7C04620010020F0B583B006000D00F6
:102AE00017000193002406E0611909B2019A300031
:102AF000FFF7B8FF0134A742F6DA03B0F0BD0000DB
:102B0000F0B5C64600B50F0090467F2303401F2B4B
:102B100008D9203BDBB25A00D3185E00114BF618DF
:102B2000002518E00023F6E743461919781900221A
:102B3000FFF798FF0134E4B2072C0AD8735D2341F4
:102B4000DB07F1D54346191978190122FFF78AFFEF
:102B5000F0E70135EDB2052D01D80024ECE704BC07
:102B60009046F0BDD85F0008F8B507000C001600CD
:102B70001D0007E001372B0032002100FFF7C0FFE6
:102B80000634E4B238780028F4D1F8BD10B598B016
:102B90002C2200210CA802F03EFD1024102200215E
:102BA00007A802F038FD1C220021684602F033FD20
:102BB00032230B93313B0E93139310930F94119484
:102BC0000E3C1494C0225202159217930BA801F0E8
:102BD00021FD072307930894002409940A940121F6
:102BE00007A801F0DFFF044B0093049406946846A5
:102BF00002F0A0F818B010BD20000200F0B58DB0B2
:102C000002F056F9FFF7C2FFFFF758FCFFF78AFC06
:102C1000FFF7A0FCFFF7F4FCFFF714FDFFF734FD0E
:102C2000FFF7A8FDB24C0021200001F005FC0C21AB
:102C3000200001F0D9FB0422AE49AF4800F0F4FBBC
:102C4000142002F053F9FFF7B9FE3C2002F04EF9D0
:102C5000FFF7FEFE90200821C00502F025FA0028AB
:102C600024D090201021C00502F01EFA00281DD0AB
:102C7000A24C0123012201212000FFF775FF01234F
:102C8000082201212000FFF76FFFFFF7C1FE282077
:102C900002F02CF99A4B9B4A1A60BFF34F8F9A4B64
:102CA0009A4ADA60BFF34F8FC046FDE70123012245
:102CB0000F219748FFF758FF012309220A21954861
:102CC000FFF752FFFFF7A4FEFA20800002F00EF992
:102CD000914B1888FEF7C8F9904B1860DDE08F4CD7
:102CE0008F492068FDF792FF20608E4B01221A75F4
:102CF000322002F0FBF8E4E0884C89492068FDF7B7
:102D0000E1FA2060874B01221A75322002F0EEF8BA
:102D1000DCE0854C814B1C60824B01221A7502F06D
:102D200033FB824B1A6902210A431A617A4A5A61BB
:102D30001A693E310A431A617C4BDB68DB07FBD41E
:102D40007A4BDB689B0665D403AE794B31001A00E1
:102D500011CA11C11088088006AD2900180090C85A
:102D600090C11088088009AC210081CB81C11388F3
:102D70000B806A4B1868FDF78DFA82B26D493000FE
:102D800002F052FC674F7B680093181CFDF782FA33
:102D900082B201921000FEF71DF9011C0098FDF7A8
:102DA00035FF6549FDF700FEFDF774FA83B2019A1D
:102DB0006249280002F038FCBF68381CFDF76AFA47
:102DC00083B200931800FEF705F9011C381CFDF7CB
:102DD0001DFF5949FDF7E8FDFDF75CFA83B2009A43
:102DE0005749200002F020FCFFF732FE01230122A8
:102DF0000A213000FFF7B8FE012309220A2128002A
:102E0000FFF7B2FE012301223C212000FFF7ACFEB8
:102E1000002429E0454BDA6820210A43DA601A6968
:102E20001E398A431A613D4B1868FDF733FA82B2A6
:102E300000233949012002F0F7FA02F0BDFA00221E
:102E4000384B1A7580E73F4D291C301CFDF704FAFA
:102E5000002820D020003C3000B2012308220821A5
:102E6000FFF73AFE0134A4B22000FEF7B3F8061CC7
:102E70002A4B58683449FDF797FD051C3149FDF789
:102E8000F5F90028DFD10021281CFDF7DBF9002827
:102E9000DAD00025D8E7FFF7BBFD322002F026F894
:102EA0009025ED050821280002F0FEF81D4C607504
:102EB0001021280002F0F8F8A075637D012B00D1E5
:102EC0000DE7184B9B7D012B00D115E7134B1C68B8
:102ED0001549201CFDF7CAF9002800D019E71B4945
:102EE000201CFDF7AFF9002800D113E7174C11E7BC
:102EF00094020020F4000020380500201862000829
:102F0000F03F0020EFBEADDE00ED00E00400FA056A
:102F1000286200083462000800E400083400002041
:102F20000000A040FC0000200000C8430020024038
:102F3000585E000844620008000020414C6200080E
:102F4000546200080000F041000040400000A04131
:102F50007047FEE77047704710B501F0B9FF10BD2C
:102F600010B5024800F004FB10BDC0463805002033
:102F700010B5034802F02FF9FFF710FC10BDC04652
:102F8000D402002010B5024800F055FF10BDC04625
:102F90009402002010B5024800F04DFF10BDC0465D
:102FA0009402002082B00A4B996901221143996171
:102FB00099690A400092009ADA69802149050A431A
:102FC000DA61DB690B400193019B02B07047C04698
:102FD0000010024030B589B004001422002103A87B
:102FE00002F019FB1D4B22689A4201D009B030BD96
:102FF0001B4B996980208000014399619A690240C6
:103000000192019A5A69802189020A435A615B69D7
:103010000B400293029B27230393243B04937138B4
:10302000FF3803A9C00501F073FF0E4D0E4B2B6056
:1030300000236B60AB608033EB6080332B618023B7
:10304000DB006B612023AB6180239B01EB612800D7
:1030500002F05AF8E5636C62C8E7C04600240140FC
:1030600000100240D40200200800024010B58AB0CF
:1030700004001422002105A802F0CDFA2368254A95
:10308000934204D0244A934222D00AB010BD234C6C
:1030900062698021C9020A43626163690B4001933E
:1030A000019BC0230593AE3B0693113B079303227C
:1030B0000892099305A91A4801F02AFFE2698021C4
:1030C00089030A43E261E3690B400293029BDCE758
:1030D000124C62698021C9020A43626163690B4034
:1030E0000393039BC0231B01059312230693113BFB
:1030F000079303220892099305A9094801F008FFE4
:10310000E2698021C9030A43E261E3690B40049349
:10311000049BBAE7005400400058004000100240F1
:103120000004004800B583B00268104B9A4201D0F9
:1031300003B000BD0E4A91698020000101439161F6
:10314000936903400193019B002200210D2002F0AE
:1031500097F80D2002F0C4F8002200210E2002F0A2
:103160008FF80E2002F0BCF8E2E7C046002C0140C8
:103170000010024010B588B004001422002103A8FA
:1031800002F049FA2268124B9A4201D008B010BDF1
:10319000104B996980200001014399619A690240AE
:1031A0000192019A5A69802189020A435A615B6936
:1031B0000B400293029B80235B000393FE3B04932E
:1031C0000793902003A9C00501F0A2FEDEE7C046E8
:1031D000002C01400010024082B00268074B9A4266
:1031E00001D002B07047064AD16980200004014333
:1031F000D161D36903400193019BF2E7005C004079
:103200000010024030B583B004000023019303682E
:10321000996803220A40012A0ED09968204A114277
:1032200012D19A6801210A439A601E4B18681E4900
:10323000FCF76AFF019015E01A68D2072DD4DA680E
:103240001204EAD5002008E0636C10221343636483
:10325000A36C0F3A1343A364012003B030BD019B5C
:10326000013B0193019B002BF9D101F039FE0500D0
:1032700023681B68DB070ED401F032FE401B0228D6
:10328000F6D9636C102213436364A36C0F3A1343A3
:10329000A3640120E1E70020DFE70020DDE7C0466E
:1032A000170000806C00002040420F0070B5041E23
:1032B00000D1B0E0436C002B7DD0636CDB0600D501
:1032C000A3E021688B6804221A4000D09DE0636C63
:1032D000524803400630FF30034363648868032389
:1032E0000340012B6DD0CB6818208343A0680343B3
:1032F000CB6021680B699B009B08606803430B61EE
:103300002168CB6846480340CB60A3699B03E16911
:10331000C9030B43216A48030343606B012857D05C
:10332000802040010343E06803432069022851D014
:103330001343226B52001343626A012A4CD0A26AE3
:10334000C221FF318A4202D0E16A0A431343216855
:10335000CA681A43CA60A26B802149058A420DD00F
:10336000012A0BD0022A09D0032A07D0042A05D04B
:10337000052A03D0062A01D0072A0AD1206841690C
:1033800007229143416120684169A56B2A400A43A5
:1033900042612268D26823490A409A422BD0636C6A
:1033A00012229343023A13436364A36C0F3A13430C
:1033B000A36401202EE0836440228354FFF70AFEB9
:1033C0007BE70B68DB079BD4CB681B0498D48AE7A8
:1033D0001000A7E70422ABE7002903D180225202A4
:1033E0001343ACE7626C20210A436264A26C1F396C
:1033F0000A43A264A3E70023A364636C03229343FC
:10340000023A13436364002004E0636C1022134308
:103410006364012070BD0120FCE7C046FDFEFFFF94
:103420001902FEFFE7FF3F83F8B504000E00170006
:1034300003689B685B073ED44023C35C012B3CD0F0
:1034400040230122C254C369012B32D0FFF7DAFEB8
:10345000051E2CD1636C1A4A1A4080235B0013436B
:1034600063640023A3644022A354E36B154A9A6269
:10347000E36B154ADA62E36B144A1A6323681C2271
:103480001A602268536810210B4353602268D36886
:103490000F390B43D360216840313B003200E06BB1
:1034A00001F05EFE2268936804210B4393602800BC
:1034B000F8BD0025CEE70225F9E70225F7E7C0466B
:1034C000FEF0FFFFD53400084735000855350008E9
:1034D0007047000010B5436A5A6C5021114203D066
:1034E000DB6B1B6B984710BD596C802292000A431E
:1034F0005A641A68D068C0210901084213D1196AB8
:10350000002910D1116809070DD5916849070ED41B
:1035100051680C20814351605A6C09490A400431BA
:10352000FF310A435A641800FFF7D2FFDBE75A6CF9
:1035300020210A435A649A6C1F390A439A64F2E7BD
:10354000FEFEFFFF704710B5406AFFF7FBFF10BD9E
:103550007047704710B5406A436C40221343436480
:10356000836C3C3A13438364FFF7F3FF10BD000004
:1035700010B5040003681A68520702D55A6852074A
:1035800005D41A68120729D55A68120726D5626C25
:10359000D20604D4616C802292000A436264D96826
:1035A000C0221201114213D1226A002A10D11A68D6
:1035B00012070DD59A68520731D45A680C218A43F4
:1035C0005A60636C204A13400432FF321343636431
:1035D0002000FFF77DFF23680C221A6023681A6819
:1035E000120602D55B681B0622D423681A68D2062D
:1035F00014D55A68D20611D5626B012A02D0DA6856
:10360000D20708D5A26C02210A43A26410221A60D4
:103610002000FFF79EFF236810221A6010BD636C24
:10362000202213436364A36C1F3A1343A364CFE7C0
:10363000626C80235B02134363642000FFF788FF02
:10364000236880221A60D0E7FEFEFFFF30B583B00A
:103650000400002301934033C35C012B00D18AE0B6
:1036600040230122C25403689A68520775D4434A22
:103670004868904256D09A6A01200D68A8400243DB
:103680009A62A36B8022520593421ED0012B1CD05C
:10369000022B1AD0032B18D0042B16D0052B14D0D4
:1036A000062B12D0072B10D0226850690723034045
:1036B0008868984209D05069072398435061206870
:1036C00042698D682B40134343610B681A00103A1E
:1036D000022A4CD82A4A1268102B0ED0112B09D07E
:1036E00080235B041343264A13600B68102B07D01A
:1036F000002037E08023DB03F4E780231B04F1E79D
:10370000204B18682049FCF7FFFC83001818430081
:10371000019302E0019B013B0193019B002BF9D136
:1037200000201FE09A6A01200D68A84082439A6237
:103730000B681A00103A022A1BD8114A1268102B83
:1037400009D0112B05D0114B13400D4A13600020F6
:1037500008E00F4BF8E70F4BF6E7436C20221343CA
:103760004364012040230022E25403B030BD002016
:10377000F8E70020F6E70220F7E7C0460110000056
:10378000082701406C00002040420F00FFFFFFFEB1
:10379000FFFFBFFFFFFF7FFF03689A69920701D514
:1037A00000229A6203689A69D20703D49A690121B8
:1037B0000A439A617047000030B51D0004686068D4
:1037C000064B18408905890D12040B0013432B4347
:1037D000039A13430343636030BDC046009800FC66
:1037E00070B504000E00150003689B69DB0616D552
:1037F00023689A69920614D4731CF9D0002E04D061
:1038000001F06EFB401BB042F2D941232022E2546A
:1038100000232232A354023AA354032018E00020CC
:1038200016E01022DA6123682025DD612000FFF711
:10383000B3FF2268536807490B4053600423636455
:103840003D33E55400234222A354023AA3540120FD
:1038500070BDC04600E800FE70B504000D00160003
:1038600023689B699B071CD4320029002000FFF7C6
:10387000B7FF002817D16B1CF2D0002D04D001F047
:103880002FFB801BA842EBD9636C20221343636497
:103890004123E25400232232A354023AA3540320CA
:1038A00000E0002070BD0120FCE7F8B506000C0028
:1038B00017001D0033689B6923401B1B5A4253416C
:1038C000BB4213D16B1CF5D0002D05D001F008FBD5
:1038D000069BC01AA842EDD941232022F2540023AE
:1038E0002232B354023AB354032000E00020F8BD62
:1038F00070B505000C0016002B689B699B061AD456
:10390000320021002800FFF76BFF002815D1002CA2
:1039100004D001F0E5FA801BA042EDD96B6C2022A7
:1039200013436B644123EA5400232232AB54023A1E
:10393000AB54032070BD0020FCE70120FAE7000033
:1039400010B5041E59D04123C35C002B43D0412342
:103950002422E2542268136801218B4313602268F9
:10396000274B61680B4013612268936825490B401F
:103970009360E368012B34D0226884231B02A16882
:103980000B439360E368022B32D0226851681E4BD0
:103990000B4353602268D3681A490B40D3602369F4
:1039A00062691343A269120221681343CB60226843
:1039B000E369216A0B4313602268136801210B43FA
:1039C00013600023636441221F31A1542363013239
:1039D000A354002010BD40330022C254FFF746FB21
:1039E000B5E7226880231B02A1680B439360C9E7F7
:1039F0002368802212015A60C7E70120EAE7C04627
:103A0000FFFFFFF0FF7FFFFF00800002F0B585B0F1
:103A10000500039117001E004123C35C202B00D03A
:103A2000A5E02033C35C012B00D1A3E04023012299
:103A3000C25401F055FA040080210090192301229C
:103A400009022800FFF731FF002800D094E041234D
:103A50002122EA540133113AEA5400236B646F6265
:103A60006E856B636B8D9BB2FF2B0CD9FF232B856F
:103A70007F3B8022920100925B04FF220399280081
:103A8000FFF79AFE1FE06A8D92B22A858023D2B298
:103A90008021890100919B0403992800FFF78CFE87
:103AA00011E06B6C042B00D068E0012060E06A8DAF
:103AB00092B22A858023D2B2002100919B040399FF
:103AC0002800FFF779FE6B8D9BB2002B33D02200CC
:103AD0000A992800FFF7C0FE0028E2D16B6A5A1C41
:103AE0006A622A681B7893626B8D013B9BB26B857F
:103AF0002B8D013B9BB22B85002BE4D16B8D9BB2B0
:103B0000002BE0D000940A9B002280212800FFF7C0
:103B1000CCFE002834D16B8D9BB2FF2BC7D9FF237D
:103B20002B857F3B002200925B04FF320399280023
:103B3000FFF742FEC7E722000A992800FFF7D8FEE8
:103B4000002804D06B6C042B1CD1012010E02B68E2
:103B50002022DA6129684B680B4C23404B604123DB
:103B6000EA5400232232AB54023AAB5400E0022064
:103B700005B0F0BD0220FBE70320F9E70320F7E7DB
:103B80000320F5E70320F3E700E800FE4123C05CD3
:103B9000C0B27047F0B54123C35C202B20D1203345
:103BA000C35C012B1ED04024012202554125242351
:103BB00043550668336893433360066833680A4F99
:103BC0003B403360066833681943316001680B6815
:103BD00013430B602023435500230355002000E0CE
:103BE0000220F0BD0220FCE7FFEFFFFFF0B541230C
:103BF000C35C202B1ED12033C35C012B1CD040247E
:103C00000122025541252423435506683368934316
:103C1000336006683368094F3B400902194331603D
:103C200001680B6813430B602023435500230355A1
:103C3000002000E00220F0BD0220FCE7FFF0FFFFC3
:103C400030B5036A012293430362036A42688469C0
:103C50007325AC430D682C430225AB438D682B4381
:103C6000144DA84208D0144DA84205D0134DA842C7
:103C700002D0134DA84205D10825AB43CD682B4394
:103C80000425AB430B4DA84208D00B4DA84205D0EC
:103C90000A4DA84202D00A4DA84205D1094D2A403A
:103CA0004D692A438D692A43426084614A684263B0
:103CB000036230BD002C014000400140004401403F
:103CC00000480140FFFCFFFF70B5036A194A13402A
:103CD0000362036A4268C4697325AC430E682643D5
:103CE000154C23408C6824022343144CA04219D065
:103CF000124CA04208D0124CA04205D0114CA04258
:103D000002D0114CA04207D1104C14404A69120154
:103D100022438C6925012A434260C6614A68C26316
:103D2000036270BD0A4C1C40CB681B022343094C44
:103D30002340DDE7FFFEFFFFFFFDFFFF002C0140FA
:103D4000004001400044014000480140FFCFFFFF18
:103D5000FFF7FFFFFFFBFFFF30B5036A134A134075
:103D60000362026A4368C469114D2C400D682D023C
:103D70002C43104D15408A6812032A430E4DA84269
:103D800008D00E4DA84205D00D4DA84202D00D4DD1
:103D9000A84204D10C4D2B404D69AD012B4343602B
:103DA000C4614B680364026230BDC046FFEFFFFF91
:103DB000FF8CFFFFFFDFFFFF002C014000400140B0
:103DC0000044014000480140FFBFFFFF30B5036AD7
:103DD000046A0125AC4304628469EF35AC431201E7
:103DE00022430A24A34319438261016230BD0000CB
:103DF00030B5036A1024A34303628469036A054D46
:103E00002C4012032243A024A343090119438261D9
:103E1000016230BDFF0FFFFF8368702293430722CA
:103E2000114319438160704770477047704770476E
:103E300070477047704710B5040003681A6992070D
:103E40000FD5DA6892070CD5032252421A6101237A
:103E5000037703689B699B0763D0FFF7E9FF0023A3
:103E6000237723681A69520712D5DA6852070FD5EB
:103E7000052252421A610223237723689A69C023DC
:103E80009B001A4253D02000FFF7D2FF0023237774
:103E900023681A69120710D5DA6812070DD50922AE
:103EA00052421A61042323772368DB699B0745D0BC
:103EB0002000FFF7BDFF0023237723681A69D2068D
:103EC00012D5DA68D2060FD5112252421A610823A0
:103ED00023772368DA69C0239B001A4235D020007B
:103EE000FFF7A6FF0023237723681A69D20702D5BC
:103EF000DA68D20730D423681A69120602D5DA6864
:103F0000120630D423681A69520602D5DA685206BE
:103F100030D423681A69920602D5DA68920630D442
:103F200010BDFFF784FF2000FFF783FF97E7200015
:103F3000FFF77DFF2000FFF77CFFA7E72000FFF7DA
:103F400076FF2000FFF775FFB5E72000FFF76FFF52
:103F50002000FFF76EFFC5E7022252421A612000DF
:103F6000FFF764FFC7E7812252421A61200000F088
:103F7000F0FAC7E7412252421A612000FFF75AFFC8
:103F8000C7E7212252421A61200000F0E1FAC7E798
:103F90000368214A904206D08022D205904202D086
:103FA0001E4A904203D1702293434A6813431A4A2F
:103FB000904212D08022D20590420ED0174A9042F1
:103FC0000BD0174A904208D0164A904205D0164AA4
:103FD000904202D0154A904203D1154A1340CA6854
:103FE0001343802293434A69134303608B68C3627F
:103FF0000B688362084B984208D00A4B984205D060
:10400000094B984202D0094B984201D10B690363D6
:10401000012343617047C046002C0140000400406A
:1040200000200040004001400044014000480140A1
:10403000FFFCFFFF70B5041E14D03D23C35C002BB2
:104040000AD03D2502236355211D2068FFF7A0FFFC
:1040500001236355002070BD3C330022C254FFF79A
:10406000E3FEEEE70120F6E770B5041E14D03D2311
:10407000C35C002B0AD03D2502236355211D206817
:10408000FFF786FF01236355002070BD3C330022FB
:10409000C254FFF7CAFEEEE70120F6E770B5041E32
:1040A00014D03D23C35C002B0AD03D250223635569
:1040B000211D2068FFF76CFF01236355002070BDB0
:1040C0003C330022C254FFF72DF8EEE70120F6E75B
:1040D00070B5036A102293430362036A42688469DD
:1040E000174D2C400D682D0225432024A3438C68D6
:1040F00024012343134CA04219D0124CA04208D0F3
:10410000114CA04205D0114CA04202D0104CA0424C
:1041100007D1104C14404A69920022438C69A600D2
:104120003243426085614A688263036270BD8024C5
:10413000A3431C00CB681B0123434024A343DCE7BB
:10414000FF8CFFFF002C0140004001400044014073
:1041500000480140FFF3FFFF10B504003C23C35C9F
:10416000012B25D03C230120E05401330130E054E1
:10417000042A15D007D9082A16D00C2A08D120689D
:10418000FFF7EAFD04E0002A02D12068FFF758FD9E
:104190003D230122E254013B0022E254002010BDE5
:1041A0002068FFF795FFF3E72068FFF78DFDEFE745
:1041B0000220F4E770B504000D003C23C35C012B22
:1041C00069D03C230121C15401330131C154042A77
:1041D00037D019D9082A4AD00C2A2AD129000068D8
:1041E000FFF7BAFD2268D16980231B010B43D3611D
:1041F0002268D36929490B40D3612168CB692A69B8
:1042000012021343CB6114E0002A12D12900006886
:10421000FFF716FD2268936908210B43936122681A
:10422000936904398B4393612268936929690B432D
:1042300093613D230122E254013B0022E25400201D
:1042400070BD29000068FFF743FF22689169802351
:104250001B010B4393612268936910490B409361E2
:1042600021688B692A69120213438B61E1E72900F7
:104270000068FFF729FD2268D36908210B43D36149
:104280002268D36904398B43D3612268D3692969D1
:104290000B43D361CDE70220D2E7C046FFFBFFFF0F
:1042A00030B58468034D2C401B021A43114321434F
:1042B000816030BDFF00FFFF10B504003C23C35CEC
:1042C000012B00D17FE03C230122C2540133013293
:1042D000C254026893683D48034093600B68402BCA
:1042E0005DD010D9702B43D020D8502B4DD0602BEF
:1042F00036D1CA6849682068FFF77AFD60212068D6
:10430000FFF78AFD2CE0102B53D008D9202B55D075
:10431000302B25D130212068FFF77EFD20E0002BD7
:104320001ED100212068FFF777FD19E0802252019D
:10433000934210D080229201934211D1CB684A68F7
:1043400089682068FFF7ACFF226891688023DB0151
:104350000B43936004E02268936807218B439360CA
:104360003D230122E254013B0022E254002010BD13
:10437000CB684A6889682068FFF792FF22689368D3
:1043800077218B430B439360EAE7CA68496820684A
:10439000FFF71CFD50212068FFF73EFDE0E7CA68EB
:1043A00049682068FFF712FD40212068FFF734FDBF
:1043B000D6E710212068FFF72FFDD1E720212068E4
:1043C000FFF72AFDCCE70220D1E7C0468800FFFFB7
:1043D00010B501248C40036AA3430362036A8A4038
:1043E0001A43026210BD000010B5040001220068EB
:1043F000FFF7EEFF23680C4A934208D00B4A934222
:1044000005D00B4A934202D00A4A934204D1596C18
:10441000802212020A435A642268136801210B4366
:104420001360002010BDC046002C01400040014038
:10443000004401400048014010B50400012200681A
:10444000FFF7C6FF23680C4A934208D00B4A9342F9
:1044500005D00B4A934202D00A4A934204D1596CC8
:10446000802212020A435A642268136801210B4316
:104470001360002010BDC046002C014000400140E8
:104480000044014000480140F0B53C23C35C012BCF
:104490001ED03C22012585543D2402230355066885
:1044A00073687027BB437360066873680F683B438B
:1044B00073600668B3688027BB43B3600668B3685F
:1044C00049680B43B3600555002383540020F0BDB9
:1044D0000220FCE770B53C23C35C012B28D03C22B2
:1044E000012585543D2402230355124BCE683340E9
:1044F0008E683343104E33404E6833430F4E334083
:104500000E6833430E4E33400E6933430D4E334035
:104510004E6933430C4E334089690B430B4E334095
:104520000B4301684B64055500238354002070BD84
:104530000220FCE7FFFCFFFFFFFBFFFFFFF7FFFF91
:10454000FFEFFFFFFFDFFFFFFFBFFFFFFF7FFFFF6B
:104550007047704770B5041E58D0EA23FF33C35C20
:10456000002B05D0EA23FF330322E254002218E097
:10457000E933FF330022C254FEF72EFEF2E7D100EA
:10458000891A8B00E31819002931012008700139BC
:104590000A7018002B300021017059639963D963A8
:1045A000013260689042EAD8002214E0D100891AF2
:1045B0008B00E3181D000A35FF3500212970013DED
:1045C0002A700335297009352960043529601D33A7
:1045D000FF33196001329042E8D84023012221685C
:1045E000CA5200222168CA524421206842520C312A
:1045F00020684252064A2168CA5200221C3BE254FB
:104600000122EA23FF33E254002070BD0120FCE7C1
:1046100000BFFFFF70B582B004000368DB072BD535
:10462000B34B5A680C231340042B1DD0B04B5A686F
:104630000C231340082B0ED06368012B41D0002BB4
:1046400056D1AB4B1A68AB490A401A601A68AA499E
:104650000A401A603BE0A64B5B68C022520213403E
:10466000802252029342E7D1A14B1B689B0303D5E2
:104670006368002B00D139E223689B0778D59C4BF7
:104680005B680C221A4262D0994B5A680C23134083
:10469000082B53D0E368002B00D18BE0944A1368B9
:1046A00001210B43136000F01BFC0500904B1B68BD
:1046B0009B0776D400F014FC401B0228F6D9032097
:1046C00017E28B4A116880235B020B431360636817
:1046D000002B25D000F004FC0500854B1B689B03D4
:1046E000CAD400F0FDFB401B6428F6D9032000E289
:1046F000052B09D07E4B1A687E490A401A601A6859
:104700007D490A401A60E2E7794B19688022D2029B
:104710000A431A601968802252020A431A60D6E7D7
:1047200000F0DEFB0500724B1B689B03A4D500F074
:10473000D7FB401B6428F6D90320DAE16C4B5B6899
:10474000C02252021340802212029342A2D1684B2F
:104750001B689B0704D5E368012B01D00120C8E149
:1047600063490B68F82293432269D20013430B601C
:1047700023681B0744D5E369002B2ED05C4A536A9B
:1047800001210B43536200F0ABFB0500584B5B6A01
:104790009B0735D400F0A4FB401B0228F6D9032068
:1047A000A7E153490B68F82293432269D2001343CF
:1047B0000B60DDE74E4A136801218B43136000F064
:1047C0008FFB05004A4B1B689B07D1D500F088FB87
:1047D000401B0228F6D903208BE1454A536A012188
:1047E0008B43536200F07CFB0500414B5B6A9B07E7
:1047F00006D500F075FB401B0228F6D9032078E1AE
:1048000023685B0700D47FE0394BDB69DB001DD4F4
:10481000374AD169802040050143D161D369034003
:104820000193019B0125354B1B68DB0510D5A3685F
:10483000012B21D0002B36D12D4B1A6A01218A433E
:104840001A621A6A03318A431A621AE00025EAE7FB
:104850002A4A116880235B000B43136000F040FB81
:104860000600264B1B68DB05E1D400F039FB801BFA
:104870006428F6D903203CE11D4A136A01210B4349
:104880001362A368002B24D000F02AFB0600184B0B
:104890001B6A9B0736D400F023FB801B184B984201
:1048A000F5D9032025E1052B09D0114B1A6A012106
:1048B0008A431A621A6A03318A431A62E1E70C4B8F
:1048C0001A6A04210A431A621A6A03390A431A62ED
:1048D000D7E700F005FB0600054B1B6A9B0711D5C7
:1048E00000F0FEFA801B064B9842F5D9032000E148
:1048F00000100240FFFFFEFFFFFFFBFF00700040C3
:1049000088130000012D3AD02368DB0610D56369B7
:10491000012B3AD0053358D1784A536B04218B438D
:104920005363536BF4318B43A169C9000B43536349
:1049300023689B0600D482E0704B5A680C23134016
:104940000C2B60D06D4B5A680C231340082B53D0AE
:10495000236A002B60D0694A516B80235B020B43B2
:10496000536300F0BDFA0500644B5B6BDB0366D458
:1049700000F0B6FA401B0228F6D90320B9E05F4ADE
:10498000D3695F490B40D361BEE75C4B5A6B04218E
:104990000A435A635A6B03390A435A6300F0A0FA78
:1049A0000500564B5B6B9B0706D400F099FA401B41
:1049B0000228F6D903209CE050494B6BF822934320
:1049C000A269D20013434B63B2E74C4B5A6B0421EC
:1049D0000A435A635A6B03398A435A6300F080FAD8
:1049E0000500464B5B6B9B07A2D500F079FA401B94
:1049F0000228F6D903207CE0404B5B68C0225202BB
:104A000013409342A4D13D4B5B6BDB0317D5236A64
:104A1000012B14D001206CE0384A536B39490B400C
:104A2000536300F05DFA0500344B5B6BDB0306D586
:104A300000F056FA401B0228F6D9032059E0636AB9
:104A4000002B55D02D4A51680C220A40082A52D01A
:104A5000022B12D0294A13682B490B40136000F037
:104A60003FFA0400254B1B689B013DD500F038FA46
:104A7000001B0228F6D903203BE0204A1368224994
:104A80000B40136000F02CFA05001C4B1B689B01C7
:104A900006D500F025FA401B0228F6D9032028E0AD
:104AA000164BDA6A0F218A43216B0A43DA625A688D
:104AB00016490A40E16AA06A01430A435A6019682C
:104AC000802252040A431A6000F00AFA04000B4BD9
:104AD0001B689B0106D400F003FA001B0228F6D9DC
:104AE000032006E0002004E0002002E0012000E0B6
:104AF000002002B070BD0120FBE7C046001002405C
:104B0000FFFFFFEFFFFFFEFFFFFFFFFEFF7FC2FF84
:104B100030B589B004AA1F4B180032C832C2110048
:104B200002680A606A46103313CB13C21B68136015
:104B3000194B5A680C231340082B04D00C2B26D099
:104B4000164809B030BD910C0F23194004A8445CED
:104B50001149C96A0B406946C95CC0235B021A400F
:104B600080235B029A4208D0C0235B029A4209D09C
:104B70000A48FBF7C9FA6043E3E70848FBF7C4FAC1
:104B80006043DEE70648FBF7BFFA6043D9E7044815
:104B9000D7E7C046645E00080010024000127A00A9
:104BA000006CDC0270B505000C00594B1A6801233B
:104BB00013408B420BD256490B6801229343234387
:104BC0000B600B681A40A24201D0012070BD2B6817
:104BD0009B0706D54F4A5368F0218B43A9680B43C6
:104BE00053602B68DB0763D56B68012B09D0022B60
:104BF00028D0032B2CD0474A1268920705D40120F5
:104C0000E4E7444A126892037FD542494A68032088
:104C1000824313434B6000F063F906006B68012B7D
:104C20001CD0022B28D0032B34D03A4B5B680C22CB
:104C30001A423DD000F054F9801B374B9842F4D90A
:104C40000320C3E7334A12689201DED40120BDE796
:104C5000304A526BD203D8D40120B7E72D4B5A68A3
:104C60000C231340042B23D000F03AF9801B2A4B6D
:104C70009842F3D90320A9E7264B5A680C23134026
:104C8000082B15D000F02CF9801B234B9842F3D948
:104C900003209BE71F4B5A680C2313400C2B07D0B3
:104CA00000F01EF9801B1C4B9842F3D903208DE7BE
:104CB000174B1A6801231340A3420BD914490B6800
:104CC0000122934323430B600B681A40A24201D098
:104CD00001207BE72B685B0706D50E4A53680F4916
:104CE0000B40E9680B435360FFF712FF094B5A680A
:104CF00012090F2313400A4AD35CD840094B1860AD
:104D0000002000F0C3F8002060E701205EE7C04605
:104D1000002002400010024088130000FFF8FFFF4F
:104D20005C6200086C000020014B18687047C046A8
:104D30006C00002070B582B004000368DB0335D539
:104D40004B4BDB69DB0066D4494AD16980204005C2
:104D50000143D161D36903400193019B0125454B78
:104D60001B68DB0559D5424B1B6AC02292001340D9
:104D700013D061680A409A420FD03D4B186A3E4AF0
:104D800002401E6A8021490231431962196A3B4E72
:104D9000314019621A62C30753D4354A136A36493F
:104DA0000B4061680B431362012D59D02368DB0768
:104DB00006D52F4A136B03218B43A1680B43136362
:104DC00023689B0706D52A4A136B2D490B40E168DF
:104DD0000B43136323689B0606D5254A136B1021EA
:104DE0008B4321690B43136323689B0306D5204A39
:104DF000136B80218B43A1690B43136323685B050D
:104E000033D51B4A136B40218B4361690B431363FA
:104E1000002002B070BD0025A1E7164A116880236A
:104E20005B000B43136000F05BF80600114B1B683E
:104E3000DB0598D400F054F8801B6428F6D90320D1
:104E4000E7E700F04DF80600094B1B6A9B07A4D466
:104E500000F046F8801B0B4B9842F5D90320D8E7A9
:104E6000D36909490B40D361A0E70020D1E7C046D0
:104E70000010024000700040FFFCFFFFFFFFFEFF3C
:104E8000FFFFFCFF88130000FFFFFFEF10B50400D9
:104E9000FFF74AFFFA218900FBF736F900F02AFAFA
:104EA000012000222100404200F0EAF9002010BD5C
:104EB00010B5064A136810210B4313600020FFF75A
:104EC000E5FFFEF76FF8002010BDC046002002404D
:104ED000024A1368013313607047C04684050020FE
:104EE000014B18687047C0468405002030B583B078
:104EF0000190FFF7F5FF0500019C631C00D0013411
:104F0000FFF7EEFF401BA042FAD303B030BD000014
:104F1000F0B5C64600B582B0002338E0042600E0B4
:104F20000026AE4035003D430234A400574EA55143
:104F3000574C25684246D4432E0026404A68D20387
:104F400002D5424615432E00514D2E606D682E004D
:104F500026404A68920302D5424615432E004C4D26
:104F60006E60AD682E0026404A68D20202D54246E5
:104F700015432E00464DAE60ED682C404A68920203
:104F800002D542462A431400414AD46001330A68DC
:104F90001400DC4076D001259D402A409046F5D093
:104FA0004C68022C01D0122C0ED1DC080834A4006D
:104FB000275807261E40B6000F22B24097430A69C1
:104FC000B24016003E43265002685F0003242600CC
:104FD000BE40F643324094464A681440BC406246A4
:104FE000144304604C68621E012A03D9112C01D0BD
:104FF000122C10D184683440A446CC68BC40624670
:10500000144384604468AC434A6812090125154082
:105010009D4025434560C46826408C68BC403443AD
:10502000C4604A68D200B1D51A4DAE690124264346
:10503000AE61AD692C400194019C9C08A51CAD009B
:10504000124EAF5903261E40B5000F26AE40B7439F
:105050009026F605B04200D162E70F4EB0420BD069
:105060000E4EB0420AD00E4EB04209D00D4EB042A4
:1050700000D153E7052654E7012652E7022650E700
:1050800003264EE702B004BC9046F0BD000001408C
:1050900000040140001002400004004800080048DD
:1050A000000C00480010004803690B4201D10020A9
:1050B00070470120FCE770B5C56B0124066CB44055
:1050C0006C60046863604368102B04D003689960C7
:1050D0000368DA6070BD03689A600368D960F9E715
:1050E00010B504000368064A94466344180014216E
:1050F000FBF70AF880002064024BE36310BDC04652
:10510000F8FFFDBF0000024070B5041E24D0212529
:105110000223435501680B68104A1A4043688068AF
:105120000343E06803432069034360690343A069C4
:105130000343E069034313430B602000FFF7D0FFF4
:105140000023A362E36223636363A36301226255C6
:105150001F32A354002070BD0120FCE70FC0FFFFE9
:1051600070B504002020205C012832D020200125C9
:1051700025540130205C012804D020230022E25471
:10518000022070BD2030013525540020A063256821
:1051900028680126B04328602000FFF78CFFE36AEF
:1051A000002B0BD0226813680E210B43136022687A
:1051B000136801210B4313600020E2E722681368A3
:1051C0000A210B4313602268136806398B4313606E
:1051D000EDE70220D5E770B5C36B1A68046825684F
:1051E000016C04238B401A4212D06B0710D5236840
:1051F0009B0603D42368042293432360C26B0423D9
:10520000016C8B405360C36A002B00D0984770BD7F
:1052100002238B401A4218D0AB0716D523689B0691
:1052200006D423680A22934323602123093AC254F7
:10523000C26B0223016C8B40536020230022C254B6
:10524000836A002BE3D09847E1E708238B401A429A
:10525000DDD02B07DBD523680E2293432360C26B7E
:1052600001231900046CA1405160836321228354FF
:105270001F330022C254036B002BC8D09847C6E7E7
:1052800070B5002811DB8408134DC034A4006259A6
:1052900003231840C000FC331E008640B24389013E
:1052A0000B4083401343635170BDC0B20F220240D4
:1052B000083A920806329200084BD3185D6803241E
:1052C0002040C000FF2214008440A54389010A4009
:1052D00082402A435A60E7E700E100E000ED00E089
:1052E0001F2318401E3B8340014A13607047C0468D
:1052F00000E100E001380A4B98420FD8094A50609B
:105300000948036A1B021B0AC02109060B430362FA
:105310000023936007331360002070470120FCE7EF
:10532000FFFFFF0010E000E000ED00E010B5054BCE
:105330000022DA61044A13690124234313610180C6
:1053400010BDC04688050020002002400C4BDB68E1
:10535000DB0613D50B4AD36902210B43D36110231B
:10536000074AD268520706D50649CA690120024396
:10537000CA6104221343024AD36070470023EFE757
:105380000020024088050020084B1B691B060BD536
:10539000064B074A5A60074A5A601B691B0601D52B
:1053A000012002E0002000E00020704700200240C1
:1053B00023016745AB89EFCD034A136980210B4375
:1053C000136100207047C0460020024070B5040001
:1053D000FFF786FD0500134BDB68DB070AD5631C6E
:1053E000F9D0002C19D0FFF77BFD401BA042F2D969
:1053F000032011E00B4BDB689B0602D5094B2022F2
:10540000DA60084BDB68DB0603D4064BDB685B071E
:1054100005D5FFF79BFF012070BD0320FCE70020AE
:10542000FAE7C04600200240F0B5C64600B50400C9
:105430000D0090461E00214B1B7E012B3BD01F4BC5
:1054400001221A761E48FFF7C1FF00282DD1012C3A
:1054500006D0022C02D0042700241BE00227FBE721
:105460000127F9E72022D21A310091400A00414673
:10547000D940114389B24019FFF758FF1048FFF790
:10548000A5FF104A136901218B43136100280CD139
:105490000134E4B2BC4208D260002301202252420F
:1054A0009A18DFD43100D140E4E7044B00221A7689
:1054B00004BC9046F0BD0220FAE7C04688050020F3
:1054C00050C300000020024080B500AF1A4B1A689C
:1054D0001A4B9A420BD1184B194A1A60194B83F395
:1054E0000888194B1B68194A13609847FEE7184B48
:1054F0001A6801210A431A605A68164802405A6025
:105500001A68154802401A601A68144802401A6066
:105510005A68134802405A60DA6A0F208243DA62FE
:105520001A6B104802401A635A6B8A435A6300226E
:105530009A60BD4680BDC046F03F0020EFBEADDEA4
:10554000EDFEFECA5022002004C8FF1FA80500205F
:10555000001002400CB8FF08FFFFF6FEFFFFFBFF44
:10556000FFFFC0FF2CFEFCFF0D4885460D480E498D
:105570000E4A002302E0D458C4500433C4188C42AD
:10558000F9D30B4A0B4C002301E013600432A24212
:10559000FBD3FFF799FF00F011F8FDF72FFBFEE7B3
:1055A0000040002000000020D4000020A862000875
:1055B000D8000020B0050020FEE7000070B50026EE
:1055C0000C4D0D4C641BA410A64209D1002600F01E
:1055D00037FC0A4D0A4C641BA410A64205D170BDCD
:1055E000B300EB5898470136EEE7B300EB58984705
:1055F0000136F2E7A0620008A0620008A06200087D
:10560000A4620008002310B59A4200D110BDCC5C02
:10561000C4540133F8E703001218934200D17047D5
:1056200019700133F9E700000EB400B50B499CB0C6
:105630001DAB02900690079104910948094904CBDB
:105640000591006802A9019300F070F80023029A06
:1056500013701CB008BC03B01847C046FFFFFF7FA3
:10566000700000200802FFFFF0B58E6885B00700CB
:105670000C00039201939E423CD890238A89DB0060
:105680001A4234D00325096923685B1A02936369BF
:1056900002985D43EB0F5D19019B6D1001331B18E0
:1056A000AB4200D91D00530532D52900380000F067
:1056B00019FB061E09D10C233B6040230120A2895F
:1056C00040421343A38105B0F0BD029A2169FFF760
:1056D00099FFA389144A1A4080231343A381029B94
:1056E0002661F61826606561019EED1AA560019B92
:1056F0009E4200D9019E32000399206800F095FA7D
:10570000A36800209B1BA36023689E192660DAE72C
:105710002A00380000F044FB061EE0D12169380061
:1057200000F096FAC7E7C0467FFBFFFFF0B5A1B0D7
:1057300003901D008B890F0016001B0611D50B6905
:10574000002B0ED1402100F0CDFA386038610028DE
:1057500005D10C23039A0138136021B0F0BD40231A
:105760007B61002308AC6361203363761033A3763A
:10577000079535002B78002B01D0252B46D1AB1B8C
:1057800005930CD0320039000398FFF76DFF431CDE
:1057900000D1AEE06269059B9446634463612B7857
:1057A000002B00D1A5E0012200235242626004A92F
:1057B000543252186E1C2360E360A3601370A3651B
:1057C00031780522534800F025FA751C00281FD1B6
:1057D0002268D30604D5532304A95B18202119702D
:1057E000130704D5532304A95B182B2119703378B0
:1057F0002A2B16D0350000210A20E3682A786E1C77
:10580000303A092A4ED9002918D010E00135B1E705
:10581000404B2268C01A01238340134323602E00AB
:10582000CEE7079B191D1B680791002B01DB0B932B
:1058300004E05B42E3600223134323602B782E2BAA
:105840000AD16B782A2B35D1079B02351A1D1B68AC
:105850000792002B2BDB09932F4E2978032230006F
:1058600000F0D8F9002806D04023801B834022682E
:105870000135134323602978062228486E1C2176BF
:1058800000F0C8F900283CD0254B002B25D1072279
:10589000079B07339343083307936369049A9B1864
:1058A000636166E7434301219B183500A6E70123A6
:1058B0005B42D0E700230A201A0001356360297893
:1058C0006E1C3039092903D9002BC5D00992C3E7D2
:1058D0004243012352183500F1E707AB00933A0029
:1058E000104B2100039800E000BF0490049B01339B
:1058F000D3D1BB890D985B0600D42EE7012040422E
:105900002BE707AB00933A00064B2100039800F009
:1059100079F8EAE76C6200087262000876620008B3
:105920000000000069560008F7B5150001938A6869
:105930000B6900900C00934200DA130022002B60E8
:1059400043321278002A01D001332B6023689B0672
:1059500002D52B6802332B60062723681F4027D00F
:10596000230043331B785A1E93412268920630D499
:105970002200019943320098089EB047431C25D06D
:10598000062320682A68E16803400025042B03D120
:105990008D1AEB43DB171D40A3682269934201DD9A
:1059A0009B1AED180027BD4220D1002010E00137DE
:1059B000E3682A689B1ABB42D2DD22000123193218
:1059C00001990098089EB047431CF0D10120404245
:1059D000FEBD3020E1184331087021005A1C4531CA
:1059E0000978A218433202331170C1E72200012363
:1059F0001A3201990098089EB047431CE6D001373F
:105A0000D1E70000F0B589B004920A004332059353
:105A1000039002920A7E0C000E9B6E2A00D186E053
:105A20001FD8632A33D008D8002A00D18CE0582A26
:105A30004DD0250042352A7030E0642A01D0692A11
:105A4000F7D1196825680A1D280629D508681A6043
:105A5000002803DA2D23029A404213706B4E0A2766
:105A60004FE0732A74D008D86F2A1FD0702AE0D173
:105A7000202209680A43226003E0752A16D0782A9A
:105A8000D7D12200782145321170614E22E02500E5
:105A90001A684235111D196013682B70012365E0E7
:105AA00008681A606906D3D500B2D1E7196825687D
:105AB000081D186008682E0605D5544E08276F2A61
:105AC0001BD00A2719E06D06F7D580B2F5E74531FE
:105AD0004E4E0A7018682268011D0068196015068C
