:020000040800F2
:1000000000400020A12700088106000883060008A0
:1000100000000000000000000000000000000000E0
:10002000000000000000000000000000850600083D
:100030000000000000000000870600088906000894
:10004000F1270008F1270008F1270008F127000830
:10005000F1270008F1270008F1270008F127000820
:10006000F1270008A1060008F1270008F127000881
:1000700091060008B1060008C1060008F127000833
:10008000F1270008F1270008F1270008F1270008F0
:10009000F1270008F1270008F1270008F1270008E0
:1000A000F1270008F1270008F1270008F1270008D0
:1000B000F1270008F1270008F1270008F1270008C0
:1000C000002934D00123002210B488422CD301240B
:1000D0002407A14204D2814202D209011B01F8E7A0
:1000E000E400A14204D2814202D249005B00F8E759
:1000F000884201D3401A1A434C08A04202D3001B85
:100100005C0822438C08A04202D3001B9C082243B7
:10011000CC08A04202D3001BDC082243002803D0F5
:100120001B0901D00909E3E7101C10BC704701B599
:10013000002000F00BF802BD0029F8D003B5FFF74E
:10014000C1FF0EBC4243891A1847C0467047C046DB
:1001500002B4714649084900095C49008E4402BC5A
:100160007047C04603B47146490840004900095A27
:1001700049008E4403BC70471C2101231B04984294
:1001800001D3000C10391B0A984201D3000A083928
:100190001B09984201D30009043902A2105C4018DF
:1001A0007047C04604030202010101010000000083
:1001B0000000000010B5064C2378002B07D1054B3A
:1001C000002B02D0044800E000BF0123237010BDC3
:1001D0000C000020000000009C430008044B10B5F8
:1001E000002B03D00349044800E000BF10BDC04607
:1001F00000000000100000209C43000800B589B0FA
:100200001022002104A802F019FB144B5969802028
:100210008002014359615A6902400192019A5A6968
:100220008021C9020A435A615B690B400293029B19
:1002300018230393163B0593902003A9C00502F0F1
:100240005FF880235B01039300230493059303A9C4
:10025000034802F055F809B000BDC0460010024046
:100260000004004800B583B0094A516901231943CD
:100270005161526913400193019B00220021092022
:1002800002F008FA092002F035FA03B000BDC046BA
:100290000010024070B586B0264B5A6901263243E1
:1002A0005A615A6932400192019A9A698021890003
:1002B0000A439A619B690B400293029B0C22002126
:1002C00003A802F0BBFA1C4C1C4B236000256560A0
:1002D000A560E560266108236361A561E56125628B
:1002E00065623833A3628023DB00E36226636663C2
:1002F000200000F065FB039580235B010493023529
:10030000059503A9200000F02DFD039603A9200008
:1003100000F028FD039503A9200000F023FD05232C
:10032000039303A9200000F01DFD200000F0E8F970
:1003300006B070BD0010024084030020002401407C
:1003400010B50D4C0D4B23600D4B63600023A36073
:100350000122E26023616361A361E3612362200003
:1003600000F0A6FD0021200000F008FE0021200082
:1003700000F030FE10BDC0463000002000540040A8
:100380000E09002010B50D4C0D4B23600D4B636022
:100390000023A3600122E26023616361A361E36142
:1003A0002362200000F084FD0021200000F0E6FD23
:1003B0000021200000F00EFE10BDC0467C00002091
:1003C000005800405D3E302070B596B0354B9A69BC
:1003D00080252D012A439A619B692B400193019B43
:1003E0001022002112A802F029FA0822002110A8E8
:1003F00002F024FA1C22002109A802F01FFA1C2294
:10040000002102A802F01AFA274C284B23606560ED
:100410000025A56080267601E66080239B0023618D
:100420006561813BFF3BA361200000F0F7FF12965E
:1004300012A9200001F034F9200001F023F8200077
:1004400001F006F81095119510A9200001F010FA9E
:100450006026099632230A930B950C950D950E95FF
:100460000F95002209A9200001F098F80996FA23B7
:10047000DB000A930C2209A9200001F061F8029523
:10048000039504950595069580239B010793089590
:1004900002A9200001F012FA200000F0F5F916B0D0
:1004A00070BDC04600100240CC000020002C01406E
:1004B00010B50748074B036008234360063B836081
:1004C000036100238361C361036201F037FA10BD49
:1004D00064010020005C004010B598B02C2200217F
:1004E0000CA802F0ABF910241022002107A802F09A
:1004F000A5F91C220021684602F0A0F932230B93D3
:10050000313B0E93139310930F9411940E3C14945B
:10051000C0225202159217930BA801F06FFA07231D
:1005200007930894002409940A94012107A801F074
:100530002DFD044B009304940694684601F0F0FDF1
:1005400018B010BD20000200F0B5C64600B501F09D
:10055000A7FEFFF7C1FFFFF751FEFFF783FEFFF78E
:1005600099FEFFF7EDFEFFF70DFFFFF72DFFFFF7F9
:100570009FFF364C0021200001F052F90C21200091
:1005800001F026F904223249324800F0D9FA5A2003
:1005900001F0A4FE9025ED050821280001F08EFF52
:1005A0002D4C20741021280001F088FF6074284D24
:1005B000288802F043FE03F027FE0022274B02F0BA
:1005C00077FE274A274B03F0F5F80022264B03F06D
:1005D00011FB264A264B02F06BFE03F059FE061C67
:1005E000E0606888234F3B68984602F0E5FD41468D
:1005F00002F066FC796802F073FB1F4902F08EFA84
:10060000011C301C02F022F92060A88803F0D0FD04
:100610000022124B02F04CFE114A124B03F0CAF8B2
:100620000F4A164B03F0C6F803F032FE6060E8880C
:1006300003F0BEFD0022094B02F03AFE084A094BC6
:1006400003F0B8F803F024FEA060A0E7CC0000207F
:1006500028000020840300200C01002000FEAF4091
:100660006666666666660A400000E03F7B14AE4739
:10067000E17A843F0000002000007A4466661A4058
:100680007047FEE77047704710B501F019FE10BDC6
:1006900010B5024800F0F8FA10BDC04684030020EF
:1006A00010B5024801F0A1FF10BDC0462001002096
:1006B00010B5024800F0B3FD10BDC046CC000020CC
:1006C00010B5024800F0ABFD10BDC046CC000020C4
:1006D00082B00A4B996901221143996199690A40D4
:1006E0000092009ADA69802149050A43DA61DB69E0
:1006F0000B400193019B02B07047C04600100240BE
:1007000030B589B004001422002103A802F096F845
:100710001D4B22689A4201D009B030BD1B4B99692C
:1007200080208000014399619A6902400192019AF8
:100730005A69802189020A435A615B690B4002931E
:10074000029B27230393243B04937138FF3803A9AA
:10075000C00501F0D5FD0E4D0E4B2B6000236B60E4
:10076000AB608033EB6080332B618023DB006B61F7
:100770002023AB6180239B01EB61280001F0CEFEBA
:10078000E5636C62C8E7C0460024014000100240E7
:10079000200100200800024010B58AB00400142295
:1007A000002105A802F04AF823681F4A934204D0AA
:1007B0001E4A934215D00AB010BD1D4B59698020C6
:1007C000C002014359615A6902400192019ADA69F3
:1007D000802189030A43DA61DB690B400293029BA3
:1007E000E9E7134C62698021C9020A4362616369C7
:1007F0000B400393039BC0231B0105931223069315
:10080000113B079303220892099305A9094801F0B7
:1008100077FDE2698021C9030A43E261E3690B4085
:100820000493049BC7E7C0460054004000580040B2
:10083000001002400004004800B583B00268104B6D
:100840009A4201D003B000BD0E4A91698020000198
:1008500001439161936903400193019B00220021B0
:100860000D2001F017FF0D2001F044FF00220021B0
:100870000E2001F00FFF0E2001F03CFFE2E7C04622
:10088000002C01400010024010B588B00400142272
:10089000002103A801F0D2FF2268124B9A4201D036
:1008A00008B010BD104B9969802000010143996187
:1008B0009A6902400192019A5A69802189020A4389
:1008C0005A615B690B400293029B80235B00039398
:1008D000FE3B04930793902003A9C00501F010FD8F
:1008E000DEE7C046002C01400010024082B00268E2
:1008F000074B9A4201D002B07047064AD169802066
:1009000000040143D161D36903400193019BF2E7E5
:10091000005C00400010024030B583B004000023AA
:1009200001930368996803220A40012A14D0996848
:10093000204A114218D19A6801210A439A601E4B3D
:1009400018681E49FFF7BCFB0190019B002B16D0D5
:10095000019B013B0193F8E71A68D20727D4DA68B4
:100960001204E4D5002008E0636C10221343636492
:10097000A36C0F3A1343A364012003B030BD01F010
:10098000A7FC050023681B68DB070ED401F0A0FC60
:10099000401B0228F6D9636C102213436364A36CD6
:1009A0000F3A1343A3640120E7E70020E5E70020A6
:1009B000E3E7C046170000800800002040420F0017
:1009C00070B5041E00D1B2E0436C002B7FD0636C85
:1009D000DB0600D5A5E022689168042005000D40E3
:1009E000084200D09DE0616C524B19400633FF3342
:1009F00019436164916801330B40012B6DD0D368BA
:100A000018218B43A1680B43D360226813699B00B4
:100A10009B0861680B4313612268D36846490B4009
:100A2000D360A3699B03E269D2031343216A4A039B
:100A30001343626B012A57D0802252011343E268AC
:100A400013432269022A51D02B43226B52001343D5
:100A5000626A012A4CD0A26AC221FF318A4202D0C6
:100A6000E16A0A4313432168CA681A43CA60A26B49
:100A7000802149058A420DD0012A0BD0022A09D0D3
:100A8000032A07D0042A05D0052A03D0062A01D05C
:100A9000072A0AD1206841690722914341612068F1
:100AA0004169A56B2A400A4342612268D268234902
:100AB0000A409A422BD0636C12229343023A1343AA
:100AC0006364A36C0F3A1343A36401202EE0836494
:100AD00040228354FFF714FE79E71368DB079BD4A9
:100AE000D3681B0498D48AE72A00A7E70425ABE75C
:100AF000002903D1802252021343ACE7626C20210B
:100B00000A436264A26C1F390A43A264A3E700236C
:100B1000A364636C03229343023A1343636400208B
:100B200004E0636C102213436364012070BD012054
:100B3000FCE7C046FDFEFFFF1902FEFFE7FF3F8313
:100B4000F8B504000D00160003689B685B073ED4EF
:100B50004023C35C012B3CD040230122C254C36913
:100B6000012B04D0FFF7D8FE071E2ED100E000278E
:100B7000636C194A1A4080235B00134363640023AB
:100B8000A3644022A354E36B144A9A62E36B144AB1
:100B9000DA62E36B134A1A6323681C221A60226824
:100BA000536810210B4353602268D3680F390B43FD
:100BB000D3602168403133002A00E06B01F0DAFC99
:100BC0002268936804210B4393603800F8BD022724
:100BD000FBE70227F9E7C046FEF0FFFFED0B000838
:100BE0005F0C00086D0C00087047000010B5436AE8
:100BF0005A6C502111422BD1596C802292000A4329
:100C00005A641A68D068C0210901084213D1196AD0
:100C1000002910D1116809070DD5916849070ED434
:100C200051680C20814351605A6C0B490A400431D1
:100C3000FF310A435A641800FFF7D6FF10BD5A6C03
:100C400020210A435A649A6C1F390A439A64F2E7D6
:100C5000DB6B1B6B9847F1E7FEFEFFFF704710B59B
:100C6000406AFFF7FBFF10BD7047704710B5406A40
:100C7000436C402213434364836C3C3A13438364C4
:100C8000FFF7F3FF10BD000010B5040003681A68F9
:100C9000520702D55A68520705D41A68120729D597
:100CA0005A68120726D5626CD20604D4616C802281
:100CB00092000A436264D968C0221201114213D122
:100CC000226A002A10D11A6812070DD59A685207B5
:100CD00031D45A680C218A435A60636C204A13400D
:100CE0000432FF32134363642000FFF77DFF236863
:100CF0000C221A6023681A68120602D55B681B066C
:100D000022D423681A68D20614D55A68D20611D59F
:100D1000626B012A02D0DA68D20708D5A26C0221E0
:100D20000A43A26410221A602000FFF79EFF236886
:100D300010221A6010BD636C202213436364A36CFD
:100D40001F3A1343A364CFE7626C80235B02134313
:100D500063642000FFF788FF236880221A60D0E7D1
:100D6000FEFEFFFF30B583B0040000230193403343
:100D7000C35C012B00D18BE040230122C2540368E5
:100D80009A68520776D4434A4868904257D09A6A84
:100D900001200D68A84002439A62A36B802252058D
:100DA00093421ED0012B1CD0022B1AD0032B18D03B
:100DB000042B16D0052B14D0062B12D0072B10D0E5
:100DC00022685069072303408868984209D0506917
:100DD000072398435061206842698D682B40134374
:100DE00043610B681A00103A022A4DD82A4A126849
:100DF000102B0ED0112B09D080235B041343264AFD
:100E000013600B68102B07D0002038E08023DB0331
:100E1000F4E780231B04F1E7204B18682049FFF713
:100E20004FF903008000C0184000019002E0019BD0
:100E3000013B0193019B002BF9D100201FE09A6A2E
:100E400001200D68A84082439A620B681A00103A8C
:100E5000022A1BD8104A1268102B09D0112B05D07A
:100E6000104B13400C4A1360002008E00E4BF8E7CB
:100E70000E4BF6E7436C20221343436401204023CA
:100E80000022E25403B030BD0020F8E70020F6E76E
:100E90000220F7E7011000000827014008000020A9
:100EA00040420F00FFFFFFFEFFFFBFFFFFFF7FFF7E
:100EB00010B5041E59D04123C35C002B43D04123FD
:100EC0002422E2542268136801218B4313602268B4
:100ED000274B61680B4013612268936825490B40DA
:100EE0009360E368012B34D0226884231B02A1683D
:100EF0000B439360E368022B32D0226851681E4B8B
:100F00000B4353602268D3681A490B40D3602369AE
:100F100062691343A269120221681343CB602268FD
:100F2000E369216A0B4313602268136801210B43B4
:100F300013600023636441221F31A15423630132F3
:100F4000A354002010BD40330022C254FFF724FCFC
:100F5000B5E7226880231B02A1680B439360C9E7B1
:100F60002368802212015A60C7E70120EAE7C046E1
:100F7000FFFFFFF0FF7FFFFF00800002F0B541237D
:100F8000C35C202B20D12033C35C012B1ED0402416
:100F900001220255412524234355066833689343B3
:100FA0003360066833680A4F3B4033600668336835
:100FB0001943316001680B6813430B6020234355CC
:100FC000002303550020F0BD0220FCE70220FAE7D1
:100FD000FFEFFFFFF0B54123C35C202B1ED1203370
:100FE000C35C012B1CD0402401220255412524233F
:100FF0004355066833689343336006683368094F86
:101000003B4009021943316001680B6813430B60D0
:1010100020234355002303550020F0BD0220FCE7A8
:101020000220FAE7FFF0FFFF30B5036A0122934385
:101030000362036A426884697325AC430D682C43DC
:101040000225AB438D682B43144DA84208D0144DA4
:10105000A84205D0134DA84202D0134DA84205D195
:101060000825AB43CD682B430425AB430B4DA84269
:1010700008D00B4DA84205D00A4DA84202D00A4D17
:10108000A84205D1094D2A404D692A438D692A435A
:10109000426084614A684263036230BD002C0140B3
:1010A000004001400044014000480140FFFCFFFFB8
:1010B00070B5036A194A13400362036A4268C4693F
:1010C0007325AC430E682643154C23408C682402DC
:1010D0002343144CA04219D0124CA04208D0124C09
:1010E000A04205D0114CA04202D0114CA04207D121
:1010F000104C14404A69120122438C6925012A438D
:101100004260C6614A68C263036270BD0A4C1C40FB
:10111000CB681B022343094C2340DDE7FFFEFFFFA2
:10112000FFFDFFFF002C0140004001400044014052
:1011300000480140FFCFFFFFFFF7FFFFFFFBFFFF6E
:1011400030B5036A134A13400362026A4368C469F4
:10115000114D2C400D682D022C43104D15408A680E
:1011600012032A430E4DA84208D00E4DA84205D0C6
:101170000D4DA84202D00D4DA84204D10C4D2B407C
:101180004D69AD012B434360C4614B680364026247
:1011900030BDC046FFEFFFFFFF8CFFFFFFDFFFFF0B
:1011A000002C014000400140004401400048014043
:1011B000FFBFFFFF30B5036A046A0125AC43046238
:1011C0008469EF35AC43120122430A24A3430B4345
:1011D0008261036230BD000030B5036A1024A3436E
:1011E00003628469036A054D2C4012032243A02444
:1011F000A343090119438261016230BDFF0FFFFF64
:10120000836870229343072211431943816070471A
:10121000704770477047704770477047704710B508
:10122000040003681A6992070FD5DA6892070CD593
:10123000032252421A610123037703689B699B07CB
:1012400063D0FFF7E9FF0023237723681A69520769
:1012500012D5DA6852070FD5052252421A610223CD
:10126000237723689A69C0239B001A4253D0200039
:10127000FFF7D2FF0023237723681A69120710D5DE
:10128000DA6812070DD5092252421A610423237726
:101290002368DB699B0745D02000FFF7BDFF0023D3
:1012A000237723681A69D20612D5DA68D2060FD5D9
:1012B000112252421A61082323772368DA69C02376
:1012C0009B001A4235D02000FFF7A6FF00232377AA
:1012D00023681A69D20702D5DA68D20730D42368A6
:1012E0001A69120602D5DA68120630D423681A6920
:1012F000520602D5DA68520630D423681A6992067B
:1013000002D5DA68920630D410BDFFF784FF2000C2
:10131000FFF783FF97E72000FFF77DFF2000FFF72F
:101320007CFFA7E72000FFF776FF2000FFF775FF9F
:10133000B5E72000FFF76FFF2000FFF76EFFC5E75E
:10134000022252421A612000FFF764FFC7E78122A0
:1013500052421A61200000F0F0FAC7E741225242DF
:101360001A612000FFF75AFFC7E7212252421A6193
:10137000200000F0E1FAC7E70368214A904206D056
:101380008022D205904202D01E4A904203D17022A0
:1013900093434A6813431A4A904212D08022D205DE
:1013A00090420ED0174A90420BD0174A904208D074
:1013B000164A904205D0164A904202D0154A9042F1
:1013C00003D1154A1340CA681343802293434A69E4
:1013D000134303608B68C3620B688362084B9842B7
:1013E00008D00A4B984205D0094B984202D0094BCD
:1013F000984201D10B690363012343617047C046E2
:10140000002C01400004004000200040004001404A
:101410000044014000480140FFFCFFFF70B5041E7E
:1014200014D03D23C35C002B0AD03D250223635515
:10143000210001C9FFF7A0FF01236355002070BD03
:101440003C330022C254FFF7E3FEEEE70120F6E74B
:1014500070B5041E14D03D23C35C002B0AD03D257B
:1014600002236355210001C9FFF786FF012363555D
:10147000002070BD3C330022C254FFF7CAFEEEE7E5
:101480000120F6E770B5041E14D03D23C35C002B89
:101490000AD03D2502236355210001C9FFF76CFFE7
:1014A00001236355002070BD3C330022C254FFF776
:1014B000C3F9EEE70120F6E770B5036A1022934303
:1014C0000362036A42688469174D2C400D682D023F
:1014D00025432024A3438C6824012343134CA042BA
:1014E00019D0124CA04208D0114CA04205D0114C8A
:1014F000A04202D0104CA04207D1104C14404A69BF
:10150000920022438C69A6003243426085614A689A
:101510008263036270BD8024A3431C00CB681B015F
:1015200023434024A343DCE7FF8CFFFF002C014052
:10153000004001400044014000480140FFF3FFFF2C
:1015400010B504003C23C35C012B25D03C230120B3
:10155000E05401330130E054082A19D007D8002A9A
:101560000BD0042A0CD12068FFF7A6FF08E00C2A54
:1015700006D12068FFF7E4FD02E02068FFF754FD84
:101580003D230122E254013B0022E254002010BD21
:101590002068FFF78DFDF3E70220F8E770B504003F
:1015A0000D003C23C35C012B69D03C230121C154B5
:1015B00001330131C154082A4DD019D8002A2FD047
:1015C000042A40D129000068FFF776FF226891695C
:1015D00080231B010B4393612268936929490B40C7
:1015E000936121688B692A69120213438B612AE097
:1015F0000C2A28D129000068FFF7A2FD2268D169D2
:1016000080231B010B43D3612268D3691D490B4022
:10161000D3612168CB692A6912021343CB6112E0BE
:1016200029000068FFF700FD2268936908210B4339
:1016300093612268936904398B43936122689369AB
:1016400029690B4393613D230122E254013B0022AF
:10165000E254002070BD29000068FFF729FD2268D0
:10166000D36908210B43D3612268D36904398B43C2
:10167000D3612268D36929690B43D361E3E7022070
:10168000E8E7C046FFFBFFFF30B58468034D2C4000
:101690001B0213430B432343836030BDFF00FFFF56
:1016A00010B504003C23C35C012B00D17FE03C2338
:1016B0000122C25401330132C254026893683D488A
:1016C000034093600B68502B4ED019D8202B64D068
:1016D0000DD9302B66D0402B3ED1CA6849682068AE
:1016E000FFF768FD40212068FFF78AFD34E0002BFA
:1016F0004ED0102B30D110212068FFF781FD2BE058
:1017000080225201934222D010D98022920193422A
:1017100022D1CB684A6889682068FFF7B5FF226844
:1017200091688023DB010B43936015E0602B25D08B
:10173000702B11D1CB684A6889682068FFF7A4FF35
:101740002268936877218B430B43936004E02268FF
:10175000936807218B4393603D230122E254013BB0
:101760000022E254002010BDCA6849682068FFF7D3
:1017700021FD50212068FFF743FDEDE7CA68496865
:101780002068FFF729FD60212068FFF739FDE3E7B6
:1017900000212068FFF734FDDEE720212068FFF7F5
:1017A0002FFDD9E730212068FFF72AFDD4E702207A
:1017B000D9E7C0468800FFFF10B501248C40036ABA
:1017C000A3430362036A8A401343036210BD00000F
:1017D00010B5040001220068FFF7EEFF23680C4AF1
:1017E000934208D00B4A934205D00B4A934202D051
:1017F0000A4A934204D1596C802212020A435A6465
:101800002268136801210B431360002010BDC046FD
:10181000002C0140004001400044014000480140CC
:1018200010B5040001220068FFF7C6FF23680C4AC8
:10183000934208D00B4A934205D00B4A934202D000
:101840000A4A934204D1596C802212020A435A6414
:101850002268136801210B431360002010BDC046AD
:10186000002C01400040014000440140004801407C
:10187000F0B53C23C35C012B1ED03C2201258554CE
:101880003D2402230355066873687027BB437360C9
:10189000066873680F683B4373600668B368802707
:1018A000BB43B3600668B36849680B43B360055532
:1018B000002383540020F0BD0220FCE770B53C23D8
:1018C000C35C012B28D03C22012585543D240223F2
:1018D0000355124BCE6833408E683343104E33406D
:1018E0004E6833430F4E33400E6833430E4E334041
:1018F0000E6933430D4E33404E6933430C4E334033
:1019000089690B430B4E33400B4301684B6405550B
:1019100000238354002070BD0220FCE7FFFCFFFF82
:10192000FFFBFFFFFFF7FFFFFFEFFFFFFFDFFFFF03
:10193000FFBFFFFFFF7FFFFF7047704770B5041EBA
:1019400058D0EA23FF33C35C002B1AD0EA23FF33BD
:101950000322E25400226068904219D9D3009B1AF6
:101960009B00E318190029310120087001390A7021
:1019700018002B300021017059639963D96301323B
:10198000E9E7E933FF330022C254FEF7AFFFDDE79A
:10199000002214E0D3009B1A9B00E3181D000A35B7
:1019A000FF3500212970013D2A7003352970093562
:1019B0002960043529601D33FF33196001329042DC
:1019C000E8D8402301222168CA5200222168CA5265
:1019D0004421206842520C3120684252064A216854
:1019E000CA5200221C3BE2540122EA23FF33E25494
:1019F000002070BD0120FCE700BFFFFF70B582B082
:101A000004000368DB072BD5B34B5A680C23134043
:101A1000042B1DD0B04B5A680C231340082B0ED05A
:101A20006368012B41D0002B56D1AB4B1A68AB49F0
:101A30000A401A601A68AA490A401A603BE0A64B9D
:101A40005B68C02252021340802252029342E7D1C7
:101A5000A14B1B689B0303D56368002B00D136E2C2
:101A600023689B0777D59C4B5B680C221A4262D097
:101A7000994B5A680C231340082B53D0E368002B72
:101A800000D18AE0944A136801210B43136000F0EF
:101A90001FFC0500904B1B689B0775D400F018FCD9
:101AA000401B0228F6D9032018E28B4A11688023D4
:101AB0005B020B4313606368002B25D000F008FC29
:101AC0000500854B1B689B03CAD400F001FC401B3A
:101AD0006428F6D9032001E2052B09D07E4B1A6851
:101AE0007E490A401A601A687D490A401A60E2E796
:101AF000794B19688022D2020A431A601968802241
:101B000052020A431A60D6E700F0E2FB0500724B6E
:101B10001B689B03A4D500F0DBFB401B6428F6D9AF
:101B20000320DBE16C4B5B68C02252021340802231
:101B300012029342A2D1684B1B689B0703D5E3684E
:101B4000012B00D0C5E164490B68F8229343226958
:101B5000D20013430B6023681B0744D5E369002BB5
:101B60002ED05D4A536A01210B43536200F0B0FB53
:101B70000500594B5B6A9B0735D400F0A9FB401B5D
:101B80000228F6D90320A9E153490B68F8229343B0
:101B90002269D20013430B60DDE74F4A136801212D
:101BA0008B43136000F094FB05004B4B1B689B07B5
:101BB000D1D500F08DFB401B0228F6D903208DE122
:101BC000454A536A01218B43536200F081FB0500B3
:101BD000414B5B6A9B0706D500F07AFB401B02284D
:101BE000F6D903207AE123685B0700D480E03A4B02
:101BF000DB69DB000BD4384AD16980204005014302
:101C0000D161D36903400193019B012500E00025C8
:101C1000344B1B68DB050ED5A368012B1FD0002BAE
:101C200034D12D4B1A6A01218A431A621A6A033190
:101C30008A431A6218E02B4A116880235B000B4329
:101C4000136000F045FB0600264B1B68DB05E3D460
:101C500000F03EFB801B6428F6D903203EE11E4ABB
:101C6000136A01210B431362A368002B24D000F0F8
:101C70002FFB0600184B1B6A9B0737D400F028FB8C
:101C8000801B194B9842F5D9032027E1052B09D079
:101C9000114B1A6A01218A431A621A6A03318A4374
:101CA0001A62E1E70C4B1A6A04210A431A621A6AA3
:101CB00003390A431A62D7E700F00AFB0600064B15
:101CC0001B6A9B0712D500F003FB801B064B984252
:101CD000F5D9032002E1C04600100240FFFFFEFFDD
:101CE000FFFFFBFF0070004088130000012D39D07A
:101CF0002368DB0610D56369012B39D0053357D132
:101D0000784A536B04218B435363536BF4318B43F9
:101D1000A169C9000B43536323689B066DD5714BC2
:101D20005A680C2313400C2B60D06E4B5A680C235E
:101D30001340082B53D0236A002B7CD0694A516B87
:101D400080235B020B43536300F0C2FA0500654B2E
:101D50005B6BDB0351D400F0BBFA401B0228F6D9C1
:101D60000320BBE05F4AD3695F490B40D361BFE703
:101D70005C4B5A6B04210A435A635A6B03390A437A
:101D80005A6300F0A5FA0500564B5B6B9B0706D41F
:101D900000F09EFA401B0228F6D903209EE051492C
:101DA0004B6BF8229343A269D20013434B63B3E712
:101DB0004C4B5A6B04210A435A635A6B03398A43CA
:101DC0005A6300F085FA0500464B5B6B9B07A3D571
:101DD00000F07EFA401B0228F6D903207EE0414B3A
:101DE0005B68C022520213409342A4D13D4B5B6B0F
:101DF000DB0302D5236A012B6DD1636A002B6CD003
:101E0000384A51680C220A40082A69D0022B25D092
:101E1000344A136835490B40136000F059FA040046
:101E2000304B1B689B0150D500F052FA001B022872
:101E3000F6D9032052E02B4A536B2D490B405363D4
:101E400000F046FA0500274B5B6BDB03D5D500F0AD
:101E50003FFA401B0228F6D903203FE0214A1368CD
:101E600022490B40136000F033FA05001D4B1B683C
:101E70009B0106D500F02CFA401B0228F6D903205E
:101E80002CE0184BDA6A0F218A43216B0A43DA628D
:101E90005A6818490A40E16AA06A01430A435A6035
:101EA0001968802252040A431A6000F011FA0400F3
:101EB0000C4B1B689B0106D400F00AFA001B022899
:101EC000F6D903200AE0002008E0002006E0012007
:101ED00004E0012002E0012000E0002002B070BD1B
:101EE0000120FBE700100240FFFFFFEFFFFFFFFEB6
:101EF000FFFFFEFFFF7FC2FF10B588B004AA1E4B94
:101F000013CB13C21B6813606A461C4B13CB13C25E
:101F10001B6813601A4B5A680C231340082B04D01B
:101F20000C2B26D1174808B010BD910C0F23194077
:101F300004A8445C1249C96A0B406946C95CC023C5
:101F40005B021A4080235B029A4208D0C0235B02E6
:101F50009A4209D00C48FEF7B3F86043E3E70A4819
:101F6000FEF7AEF86043DEE70648FEF7A9F86043E7
:101F7000D9E70548D7E7C046B4430008C84300087E
:101F800000100240006CDC0200127A0070B5040000
:101F90000D005A4B1A68012313408B420AD257494D
:101FA0000B68012293432B430B600B681A40AA4233
:101FB00000D09CE023689B0706D5514A5368F02166
:101FC0008B43A1680B4353602368DB0764D56368C8
:101FD000012B09D0022B29D0032B2DD0484A12689F
:101FE000920706D4012081E0454A1268920300D48A
:101FF0007FE043494A680320824313434B6000F06B
:1020000067F906006368012B1CD0022B28D0032B34
:1020100034D03B4B5B680C221A423DD000F058F99B
:10202000801B384B9842F4D903205FE0344A126891
:102030009201DED4012059E0314A526BD203D8D448
:10204000012053E02E4B5A680C231340042B23D05D
:1020500000F03EF9801B2B4A9042F3D9032045E063
:10206000274B5A680C231340082B15D000F030F989
:10207000801B244B9842F3D9032037E0204B5A6849
:102080000C2313400C2B07D000F022F9801B1D4BB2
:102090009842F3D9032029E0184B1A680123134012
:1020A000AB4209D915490B68012293432B430B60BE
:1020B0000B681A40AA421ED123685B0706D5104A56
:1020C000536811490B40E1680B435360FFF714FF5D
:1020D0000B4B5A6812090F2313400C4AD35CD840AB
:1020E0000B4B1860002000F0C9F8002070BD0120E3
:1020F000FCE70120FAE70120F8E7C0460020024093
:102100000010024088130000FFF8FFFFDC430008C6
:1021100008000020014B18687047C04608000020E6
:1021200070B582B004000368DB0337D54C4BDB6924
:10213000DB0067D44A4AD169802040050143D16160
:10214000D36903400193019B0125464B1B68DB05C6
:102150005AD5434B1A6AC0239B00110019401A42FA
:1021600013D0626813408B420FD03D4B186A3E4A31
:1021700002401E6A8021490231431962196A3B4EAE
:10218000314019621A62C30752D4354A136A36497C
:102190000B4061680B431362012D58D02368DB07A5
:1021A00006D52F4A136B03218B43A1680B4313639E
:1021B00023689B0706D52A4A136B2D490B40E1681B
:1021C0000B43136323689B0606D5254A136B102126
:1021D0008B4321690B43136323689B0306D5204A75
:1021E000136B80218B43A1690B43136323685B0549
:1021F00032D51B4A136B40218B4361690B43136338
:1022000000202AE00025A0E7164A116880235B0021
:102210000B43136000F05CF80600124B1B68DB05F3
:1022200097D400F055F8801B6428F6D9032014E0F9
:1022300000F04EF806000A4B1B6A9B07A5D400F07D
:1022400047F8801B0B4B9842F5D9032005E0D36972
:1022500009490B40D361A1E7002002B070BDC04620
:102260000010024000700040FFFCFFFFFFFFFEFF78
:10227000FFFFFCFF88130000FFFFFFEF10B5040015
:10228000FFF748FFFA218900FDF71AFF00F03CFA3A
:10229000012000222100404200F0FCF9002010BD86
:1022A00010B5064A136810210B4313600020FFF796
:1022B000E5FFFEF70DFA002010BDC04600200240E9
:1022C000024A1368013313607047C046D0030020F0
:1022D000014B18687047C046D003002030B583B06A
:1022E0000190FFF7F5FF0500019C631C00D001344D
:1022F000FFF7EEFF401BA042FAD303B030BD000051
:10230000F0B5D6464F464646C0B582B0002338E009
:10231000042600E00026A64034003C43023292002E
:102320005F4E94515F4A14684A46D24326004D4698
:10233000AE434D68ED0302D54D462C432600594C63
:1023400026606468260016404D68AD0302D54D46F0
:102350002C432600534C6660A468260016404D6846
:10236000ED0202D54D462C4326004E4CA660E46893
:1023700022404D68AD0201D54A462243494CE260F5
:1023800001330C682200DA4000D182E001229A4039
:1023900025001540A9461442F2D04C68022C01D009
:1023A000122C0ED1DC080834A400275807261E4042
:1023B000B6000F25B540AF430D69B5402E003E4332
:1023C00026500468A4465E000324A2462700B740B6
:1023D000B846FF4365464446A543AC464C6855465F
:1023E00025402C00B44065462C4304604C68651EB3
:1023F000012D03D9112C01D0122C13D184683C403B
:10240000A446CC68B44065462C4384604468944339
:1024100022004C682409A446012465462C409C40B7
:1024200014434460C26817408A68B2403A43C260AD
:102430004A68D200A4D51C4CA66901221643A661A5
:10244000A46922400192019A9A08941CA400144E97
:10245000A75903261E40B4000F26A640B743902676
:10246000F605B04200D155E7104EB0420BD0104EE9
:10247000B0420AD00F4EB04209D00F4EB04200D148
:1024800046E7052647E7012645E7022643E70326F8
:1024900041E702B01CBC90469946A246F0BDC0463A
:1024A0000000014000040140001002400004004808
:1024B00000080048000C00480010004803690B4267
:1024C00001D0012070470020FCE770B5C56B0124E6
:1024D000066CB4406C60046863604368102B04D0E1
:1024E000036899600368DA6070BD03689A600368E6
:1024F000D960F9E710B504000368064A94466344BE
:1025000018001421FDF7DCFD80002064024BE3631A
:1025100010BDC046F8FFFDBF0000024070B5041EAC
:1025200024D021250223435501680B68104A1A4024
:10253000436880680343E06803432069034360699C
:102540000343A0690343E069034313430B60200086
:10255000FFF7D0FF0023A362E36223636363A363F7
:10256000012262551F32A354002070BD0120FCE7F8
:102570000FC0FFFF70B504002020205C012832D07E
:102580002020012525540130205C012804D020237F
:102590000022E254022070BD203001352554002075
:1025A000A063256828680126B04328602000FFF753
:1025B0008CFFE36A002B0BD0226813680E210B43BB
:1025C00013602268136801210B4313600020E2E7C7
:1025D000226813680A210B431360226813680639C6
:1025E0008B431360EDE70220D5E770B5C36B1A6823
:1025F00004682568016C04238B401A4212D06B07D3
:1026000010D523689B0603D42368042293432360D8
:10261000C26B0423016C8B405360C36A002B00D053
:10262000984770BD02238B401A4218D0AB0716D5CD
:1026300023689B0606D423680A2293432360212340
:10264000093AC254C26B0223016C8B4053602023B1
:102650000022C254836A002BE3D09847E1E70823A5
:102660008B401A42DDD02B07DBD523680E22934323
:102670002360C26B01231900046CA1405160836385
:10268000212283541F330022C254036B002BC8D075
:102690009847C6E770B5002811DB8308134DC03397
:1026A0009B005C5903221040C000FC32160086409B
:1026B000B44389010A40824022435A5170BD0F231E
:1026C0000340083B9B0806339B00094A9446634439
:1026D0005D6803242040C000FF2214008440A5430D
:1026E00089010A4082402A435A60E7E700E100E09E
:1026F00000ED00E01F2318401E3B8340014A136099
:102700007047C04600E100E0013880235B04984236
:102710000FD2094A50600948036A1B021B0AC021F4
:1027200009060B4303620023936007331360002004
:1027300070470120FCE7C04610E000E000ED00E03B
:10274000114B1A6801210A431A605A680F48024067
:102750005A601A680E4802401A601A680D48024012
:102760001A605A680C4802405A60DA6A0F208243A5
:10277000DA621A6B094802401A635A6B8A435A6339
:1027800000229A607047C046001002400CB8FF0853
:10279000FFFFF6FEFFFFFBFFFFFFC0FF2CFEFCFF6D
:1027A0000D4885460D480E490E4A002302E0D458D4
:1027B000C4500433C4188C42F9D30B4A0B4C002389
:1027C00001E013600432A242FBD3FFF7B9FF00F02F
:1027D00011F8FDF7B9FEFEE70040002000000020E0
:1027E0000C000020F44300080C000020D40300205B
:1027F000FEE7000070B500260C4D0D4C641BA410C4
:10280000A64209D1002601F0C9FD0A4D0A4C641BFD
:10281000A410A64205D170BDB300EB58984701360D
:10282000EEE7B300EB5898470136F2E7EC430008B7
:10283000EC430008EC430008F043000803001218C2
:10284000934200D1704719700133F9E7F7B542029E
:10285000530A9C464B024400C50F580A0190480099
:10286000240E000E9209C90F9B09261A8D4200D032
:102870009EE0002E2CDD002818D1002B13D0013E45
:10288000002E0ED19B1820005A012FD50130FF28B1
:1028900000D135E101229F491A405B080B401343E8
:1028A00024E0FF2C07D1130020001FE0FF2CFAD0FA
:1028B0008021C9040B4301211B2E07DC19002020B5
:1028C000F140861BB340581E834119438B18DAE749
:1028D000002E3ED0061B002C29D1002A06D0013E36
:1028E000002E01D19B18CFE7FF2825D15A0704D02D
:1028F0000F221A40042A00D004335A0105D50130B2
:10290000FF2800D104E1844A1340DB08FF2804D1EA
:10291000002B02D08022D2031343FF24C005E4051C
:102920005B0220405B0A0343E8071843FEBDFF2813
:10293000DCD08021C9040A4301211B2E07DC1100D1
:102940002024F140A61BB240541EA24111435B1843
:102950009AE7FE20FE27611C0840394221D1002C55
:102960000DD1002AC2D0002B00D1CBE09B188022D1
:10297000D2041342BAD0684A01201340B6E7FF20C0
:10298000002AB3D0002B00D1BCE080236246DB03D9
:102990001A4203D0019A1A4200D194466346DB00E2
:1029A00078E0FF2900D1AAE0D31808005B089DE772
:1029B000002E26DD002812D1002B00D173E7013E46
:1029C000002E08D1D31A20005A0100D48EE79B01B3
:1029D00004009E0976E0FF2C06D113005AE0FF2C7C
:1029E000FBD08021C9040B4301211B2E07DC1900F9
:1029F0002020F140861BB340581E83411943531ACF
:102A0000E1E7002E23D00D00061B002C18D1002A70
:102A100000D16BE7013E002E01D19B1AD4E7FF28BD
:102A200000D163E701241B2E07DC14002025F440AD
:102A3000AE1BB240551EAA4114430D001B1BC3E739
:102A4000FF2800D152E78024E4042243EAE7FE2075
:102A5000FE27661C30403E422DD1002C15D1002AA5
:102A600005D10500002B00D140E70D003EE7002B0B
:102A700048D08026D41AF604344201D09B1AF4E7D9
:102A8000231E00D032E71D0030E7002A04D1002BBE
:102A90003AD00D00FF2029E7002B9ED0802362460C
:102AA000DB031A4200D179E7019A1A4200D075E798
:102AB00094460D0072E78020D61AC004064215D055
:102AC0000D009E1A3000FDF757FB33000538834098
:102AD000844210DC1A00001B20240130C240201A5E
:102AE00083405E1EB34100201343FFE6002EE9D170
:102AF00033003000C7E7084A201A1340F6E6080002
:102B00000023F3E61300F1E61D0080239B04C1E7D8
:102B10000023FAE6FFFFFF7DFFFFFFFBF0B5C30FC9
:102B200085B0440245000391640A2D0E029301937F
:102B30000AD0FF2D38D080207F3D2E000023E400F6
:102B4000C004044300930AE0002C33D02000FDF7BA
:102B500013FB7626431F9C407642361A0095039B52
:102B60005F025D00DB0F7F0A2D0E039325D0FF2D42
:102B70002DD0802228000025FF00D20417437F3883
:102B8000039A029B361A5340009A9000284301385A
:102B90000E2831D8FDF7DCFA9C9E799E989E799C90
:102BA0009C98792323236A002E000323002CC9D18B
:102BB0000223C7E726000123C4E7381E0DD0FDF726
:102BC000DBFA431F9F4076235B42181AD8E72800A0
:102BD0000325002FD4D10225D2E70125D0E7029B9F
:102BE000009D012D00D175E0002D1CD0022D00D1DB
:102BF0006EE0032D17D141E0640179018C4231D39D
:102C00001A220120641A0125270040006400002FC9
:102C100001DBA14201D8641A2843013A002AF3D10A
:102C2000621E9441044330007F30002830DD62078B
:102C300004D00F222240042A00D00434220103D5FC
:102C40003000264A80301440FE2841DCE408FF2290
:102C5000C005D20564021040640A0443D80720432B
:102C600005B0F0BD1B220020013ECCE78023DB0332
:102C70001C4204D01F4202D13C00039B01938020E0
:102C8000019BC0030443FF20E1E73C00039BA8E74E
:102C90000122101A1B281DDC22009E36C240B440BF
:102CA0001000621E94410443620704D00F222240A8
:102CB000042A00D0043480222000D20410401442A0
:102CC000C4D000240120C2E780240023E403D5E718
:102CD0000024D8E700242000B9E7C046FFFFFFF733
:102CE000F0B5C30F85B0450246000F1C6D0A360EC5
:102CF000039302930AD0FF2E39D080240023ED00E5
:102D0000E4047F3E2543019600930BE0002D34D070
:102D10002800FDF731FA431F9D4076235B421B1AC2
:102D2000019300967C027E00640A360EFF0F002E8F
:102D300026D0FF2E2FD0802031000026E400C004D2
:102D400004437F390098019A8000039B304389181F
:102D500001387B404A1C0E2833D8FDF7F9F92727A4
:102D6000872525A68725A6258784848476000323C6
:102D70000196002DC8D10223C6E701230195C3E7C0
:102D8000002C0ED02000FDF7F7F97621431F4942B1
:102D90009C40091AD6E731000326002CD2D1022626
:102DA000D0E721000126CDE72C00009E022E00D1A5
:102DB00082E0032E00D17DE0012E27D100242000E7
:102DC00038E0270CA4B2280CAEB22500444375436A
:102DD0007E43AC4636192D0CAD197843AC4202D96E
:102DE00080246402001964462E04A4B23619B4018A
:102DF000671EBC412D0CB60E2D183443AD012C437B
:102E0000280135D5012160080C40044310007F30B3
:102E100000282FDD610704D00F212140042900D0B4
:102E20000434210103D58032100024490C40FE28CF
:102E300042DCE408FF25C005ED0564022840640A71
:102E40000443D807204305B0F0BD8023DB031D42B7
:102E500003D01C4201D1250002978024029BE40389
:102E60002C43FF20E6E72C00039B9EE73B009DE7F9
:102E70000A00CBE70121081A1B289FDC9E3225009F
:102E80009440C540621E94412C43620704D00F2237
:102E90002240042A00D0043480222000D2041040B2
:102EA0001442C6D000240120C4E780250023ED038E
:102EB0000293D2E72500FBE70024D2E7FFFFFFF7EC
:102EC000F0B543025B0A85B04F009C460193450074
:102ED000DE004B025A0A2D0E3F0E029203953A0075
:102EE000C40FC90F9B09FF2F01D1002B01D1012075
:102EF0004140E81BA14200D0A0E000282CDD002FBB
:102F000018D1002B00D14CE1013800280ED19B19BB
:102F10002A00590157D50132FF2A00D13FE1012192
:102F2000A34819405B0803400B434CE0FF2D06D13A
:102F300033001FE0FF2DFBD08022D2041343012277
:102F40001B2807DC2021091A1A008B40C240591E99
:102F50008B411A439319DBE700281FD0781B002D03
:102F60000AD1002E2FD00138002801D19B19D0E7BB
:102F7000FF2F06D1FF2226E0FF2FFBD08021C904BE
:102F80000E4301211B2807DC31002025C140281AEF
:102F90008640701E864131435B18BAE7691CFE27E4
:102FA0000A003A40394242D1002D2ED1002E0AD0DB
:102FB000002B00D1F8E080219B19C9040B4202D0FC
:102FC0007C4A13400122590704D00F2119400429DB
:102FD00000D00433590105D50132FF2A00D1E5E0C4
:102FE00074490B40DB08FF2A04D1002B02D080215A
:102FF000C9030B43D005FF225B02D20510405B0AD8
:103000000343E007184305B0F0BDFF22002EDAD0DD
:10301000002B00D1C8E08023019ADB031A4203D0C1
:10302000029A1A4200D194466346DB00A2E7FF29C8
:1030300000D1B3E0F3180A005B08C4E7002826DDDE
:10304000002F1DD1002B00D1ABE00138002807D1A3
:10305000F31A2A005901B6D59B019D0903927EE01F
:10306000FF2D00D164E701221B2807DC2021091A6B
:103070001A008B40C240591E8B411A43B31AE8E72D
:10308000FF2D00D154E78022D2041343EBE7002840
:1030900028D0781B8446002D0FD10C00002E00D1C3
:1030A00091E70120404284446046002801D19B1BE7
:1030B000D0E7FF2F06D10C005CE7FF2FFBD080206C
:1030C000C0040643644601201B2C08DC3000654622
:1030D000E0402024641BA640741EA64130430C002F
:1030E0001B1AB7E76F1CFE203A00024007422FD19F
:1030F000002D15D1002E05D11400002B00D162E760
:103100000C0060E7002B4FD08020F51AC004054268
:1031100001D09B1BF4E72B1E00D054E71C0052E7A4
:10312000002E05D1002BC6D11C0080239B0421E773
:10313000002B00D1FCE68023019ADB031A4200D168
:1031400072E7029A1A4200D06EE794460C006BE7D1
:103150008022F51AD204154216D00C009D1B2800BF
:10316000FDF70AF82B00039A05388340824210DCF1
:103170001900821A20200132D140821A93405D1E2C
:10318000AB4100220B431EE7002DE8D12B002A00A3
:10319000C4E7039A121A0748034014E70A00002301
:1031A00011E733002A000EE733000CE7002319E78C
:1031B000FFFFFF7DFFFFFFFB70B5002839D0C3176D
:1031C000C5185D40C40F2800FCF7D6FF02009E2002
:1031D000801A96280ADC082A01DD083A95406B021D
:1031E0005B0AC0051843E407204370BD99280BDD36
:1031F000052329009B1AD94013001B339D402B0047
:103200005D1EAB4119430D00052A01DD531F9D4092
:103210002900094B19406E0704D00F263540042DB4
:1032200000D004314D0102D59F201940801ACD08ED
:10323000D5E704000500D2E7FFFFFFFB002370B5D0
:10324000040098420AD0FCF797FF9E2302001B1A45
:10325000962B08DC082801DD083A94406402D80562
:10326000640A204370BD992B0ADD010020001B3148
:1032700088400100481E81410520801AC4400C434B
:10328000052A01DD511F8C402100084801406507D7
:1032900004D00F252C40042C00D004314C0102D561
:1032A0009F2301409B1ACC08D8E7C046FFFFFFFBD5
:1032B000F0B589B00400019003930D03CB0F4800D3
:1032C00017002D0B400D0693059344D05E4B98429A
:1032D00065D08026630FED001D435C4B36042E4302
:1032E000E400C318029300230193039B38001D03DD
:1032F0005A00DB0F2D0B520D07935FD0524B9A42B1
:1033000000D17EE07B0FED001D4380234F491B045D
:103310001D435218FB0000210698079F7840049037
:103320000298821A0392019A9000084301380E28ED
:1033300000D98FE0FCF716FF84002002D0012002A4
:103340001A022002D001840084001A02D001720007
:1033500072007200C001019E2E4327D0002D13D0B1
:103360002800FCF709FF01000B391C2911DC0200C1
:103370001D23019E083A019C5B1A9540DE40944053
:103380002E43334B1B1AADE72000FCF7F5FE20302F
:10339000E9E70300019E283B9E400024F1E7019EDF
:1033A0002E4307D02E00032302909DE73400012313
:1033B000029699E734000223029095E72B003B43E5
:1033C00025D0002D13D02800FCF7D6FE01000B39C4
:1033D0001C2910DC1D235B1A39000200D9403B0078
:1033E000083A954093400D43194A121A93E7FCF7A7
:1033F000C3FE2030EAE703003D00283B9D40002348
:10340000F2E73B002B4306D03B00032184E71D007D
:103410001A00012180E71D0002217DE7069B01992A
:103420000493012900D1AEE1002900D10EE1022967
:1034300000D1A5E1032900D008E1049B059345E1F3
:1034400000231C00004D24E1FF07000001FCFFFFEA
:103450000DFCFFFFB54204D300D027E1A34200D901
:1034600024E1F10762081143E0070C00019076089F
:103470002D021F0E1B0202932B0C2F4307933000CB
:10348000BBB207990593FCF757FEBBB243430A044E
:10349000210C050011438B4207D9C919013D8F4208
:1034A00003D88B4201D9851EC919C81A0799FCF7A0
:1034B00043FEBAB242430904A4B2030021438A4244
:1034C00007D9C919013B8F4203D88A4201D9831E0B
:1034D000C919029C891A029A2404120C240C2D0486
:1034E00005920694059E2B43069D180C9AB25443F0
:1034F0004543724370435219260CB218954202D9C3
:1035000080256D024019150C2818250412042D0C75
:103510005519814205D31E00814225D1019AAA4244
:1035200022D2029C019AA4466244A242A44164426F
:10353000E41909195E1E01928F4204D314D1624628
:10354000019CA24210D8884203D80DD1019A95421D
:103550000AD9029A9E1E9446019B634401939342AA
:103560009B415B42DB19C918019B091A5D1BAB42E9
:1035700080414042081A874200D1B2E00799FCF727
:10358000DBFDBBB243430A04290C040011438B4208
:1035900007D9C919013C8F4203D88B4201D9841E37
:1035A000C919C81A0799FCF7C7FDBAB24243090402
:1035B000ADB2030029438A4207D9C919013B8F42A2
:1035C00003D88A4201D9831EC919240423430698CB
:1035D000891A9AB25043069C019005981D0C6C43C1
:1035E0004243454301981219000C844662449442B8
:1035F00002D9802040022D180198140C00041204F6
:10360000000C65191218A94204D300D0C4E01C00B4
:10361000002A1BD079185C1EB94210D3A94204D3EA
:1036200000D0B8E0029890420BD29C1E029B0298F8
:103630005B00834280414042C719C9190293A942E5
:1036400002D1029B9A4201D001231C43039B534A9F
:103650009D18002D48DD630709D00F232340042B5C
:1036600005D0231DA342A441644236191C00F30176
:1036700007D58022D2009446494B1E40039B6344E9
:103680001D00484B9D4200DD7AE0E40871070C43C1
:10369000F308454A2D051B0315401B0B1D43049BD6
:1036A0002000DB071D43290009B0F0BD039A013A51
:1036B000039200220192DBE680221203164205D01B
:1036C000154203D11C002E00079A05928023059A0B
:1036D0001B0333430492B5E61C00079B2E000493A2
:1036E0009FE601246442B1E701235B1B382B4ADCCF
:1036F0001F2B26DC2D49039A8C46624410002100C2
:103700003200D94082408440DE400A43611E8C4131
:1037100033001443620709D00F222240042A05D047
:10372000221DA242A44164421B19140080221D00E4
:103730001204154013422AD15907E4080C43DB0850
:10374000A7E71F225242551B32000021EA40202BDE
:1037500005D01749039B8C463100634499402143AF
:103760004C1EA1410A4314000023D3E70023802606
:103770001C0005933603A9E700231C001D0088E701
:10378000002423005EE600242300250081E70023B7
:1037900001251C007DE723001C0055E7FF03000006
:1037A000FFFFFFFEFE0700000000F07F1E04000088
:1037B0003E040000F0B58BB017000293CA0F0E0351
:1037C0004B000400360B5B0D0492039246D0C84AAE
:1037D000934266D0F600420F3243802636041643E9
:1037E000C44AC5009B18019300230093029B380034
:1037F0001C035A00DB0F240B520D059360D0BC4B09
:103800009A4200D17FE07B0FE4001C438023B9493A
:103810001B041C435018FB0000220499059F7940AB
:103820000291019941180691013101910099880096
:10383000104301380E2800D984E0FCF793FC760091
:103840007600760173007300BE0176017300BE013D
:103850007300760171017101710167013500054343
:1038600026D0002E13D03000FCF786FC05000B3D5F
:103870001C2D10DC02001D232100083A94405B1B24
:103880009640D94025000E439B4B1B1AABE7FCF733
:1038900073FC2030EAE70300283B9C40002526000B
:1038A000F2E73443251E07D00193050003239CE76C
:1038B0002E000123019598E701932600022394E747
:1038C00023003B4326D0002C13D02000FCF754FCEF
:1038D00001000B391C2910DC1D235B1A3900020082
:1038E000D9403B00083A944093400C43824A101A56
:1038F00092E7FCF741FC2030EAE703003C00283B5C
:103900009C400023F2E73B00234307D010003B001C
:10391000032282E71C00180001227EE710001C0031
:1039200002227AE734002B00009A022A00D153E1E8
:10393000032A00D14DE1012A00D0A9E0002425008E
:103940002200C7E0190C9BB21F002A0CADB2280060
:10395000009151430491009957436943C919584351
:1039600003930B00010CC9188F4205D980277F02F1
:10397000BC46049B634404930B0C270C090480B2DF
:10398000A4B29C460B1829002000614350437D439C
:1039900008932D180B0C5D197A43A84202D9802395
:1039A0005B02D218280C83182D0489B205936B187A
:1039B0000793079A63469446B0B2310C06006344FD
:1039C000009A0993039B42435E434B43D2189446AB
:1039D000009D320C62444D43934202D980235B0226
:1039E000ED18130C5B190500784365434C4379438C
:1039F00000192F0C1204B6B238180093961984429D
:103A000002D980235B02C918099A049B9446634437
:103A10001F00079B02049F429B41ADB25219009DBB
:103A2000059CAC465B421219D4180393059BBF1941
:103A30009A429241039BA444B742B6419C42A4419E
:103A40006546009B764264425242AD192243000C07
:103A5000B542B64112189C458041764240423043FF
:103A6000089B1218521879021943481E8141FF0D14
:103A70000F433B00EC0D52026D0214432B43D20165
:103A800056D501255A082B401343E5072B436408FC
:103A9000019A1A495218002A4DDD590709D00F2101
:103AA0001940042905D0191D99429B415B42E41835
:103AB0000B00E10106D58021C9008C46104A144054
:103AC000019A62440F498A4200DD85E06507DB0800
:103AD0001D43E40813050C4A24031340240B1C4324
:103AE000029B2800DB071C4321000BB0F0BDC04641
:103AF000FF07000001FCFFFF0DFCFFFFFF030000BC
:103B0000FFFFFFFEFE0700000000F07F802212038F
:103B1000164257D0144255D12600059A039250E020
:103B2000049A34002B000292FEE605990291FCE60D
:103B3000069A0192ACE70120801A382800DDFDE6E4
:103B40001F2825DC2849019A8C462500624419006B
:103B500093409540C1405A1E9341C4400D431D43BC
:103B60006B0709D00F232B40042B05D02B1DAB4234
:103B7000AD416D4264191D008021230009040B40F2
:103B80000C422CD16207ED081543E4081A00A1E7A6
:103B90001F2149428A1A2100D1400022202805D045
:103BA0001248019A84466244944022001A43150048
:103BB0006A1E954100240D43D2E780260023360378
:103BC00003931D008024039B240334430293084A7B
:103BD00080E72600029AA1E700242500F7E70024E9
:103BE0000122250076E7C0461E0400003E040000C6
:103BF000FF070000F7B50D002E001F0001001500A3
:103C000033035B0A400FF20F1843CB0039030092D5
:103C1000490A6A0F1143EA00BC4D74007E00640D2E
:103C2000760DFF0FAE4203D10D00BC46154302D105
:103C300001257D40AC46009DA71BAC4500D02BE183
:103C4000002F00DC8DE0002E41D10D0015430ED079
:103C5000671E012C08D19A189A42A44113004018FB
:103C600064420019012454E0A84DAC4235D15A07F2
:103C700009D00F221A40042A05D01A1D9A429B41EE
:103C80005B42C0181300020206D5A04A01349442D8
:103C900000D181E29E4A1040DB0845071D439B4B43
:103CA000C0089C4206D12B00034300D177E2802359
:103CB0001B031843974924050C4000030099000B8F
:103CC0000443C9070C432800210003B0F0BD8F4D09
:103CD000AC42CCD080252D042943382F3CDC1F2F4B
:103CE00028DC2026F51B01950D00019EF940B5400A
:103CF000AC4615006646FD403543019EB240561E57
:103D0000B2411543ED1809189D4280412B004042F5
:103D100008180202ABD57D4A0134944200D128E252
:103D200001257B4A10405A082B401343C5072B43FB
:103D300040089CE73D000E00203DEE403500002687
:103D4000202F03D04036F71BB9400E003243561ED9
:103D5000B24115430021D5E70A4315006A1E95417B
:103D6000F8E7002F4FD0351B002C13D104001C4363
:103D700000D1F6E16C1E012D06D19B189342A4419F
:103D80004018644200196DE7604FBD4209D1080038
:103D9000130071E15D4CA642F9D080242404204335
:103DA0002C00382C2ADC1F2C17DC202507002D1BAB
:103DB000AF40BC461F000195E74065462F43019D7B
:103DC000E040AB405D1EAB411F43BB1893429241A4
:103DD00040185242340080189BE725000700203D20
:103DE000EF400025202C03D040352C1BA0400500BF
:103DF0002B435D1EAB411F430020E6E703431F003A
:103E00007B1E9F41F8E7444D661C2E4234D10500CD
:103E10001D43002C16D1002D00D1A6E10D00154345
:103E200000D124E79A189A42B64113008022401824
:103E3000764280191204104200D118E7344A013446
:103E4000104014E7002DA2D00C00144300D113E160
:103E50004407DB0823438024C0082403204206D003
:103E6000CE08264203D13000D30849070B435A0F2E
:103E7000C0001043DB00FFE0244CA64200D177E1F4
:103E80009A1840189A42894149424018C30752087B
:103E9000340013434008EAE6002F5EDD002E3DD1DA
:103EA0000D00154300D1E2E6671E012C0DD19A1AD0
:103EB00093429B41401A5B42C01A1300020200D495
:103EC000D5E640021E00450A00E1104DAC4200D18B
:103ED000CDE6382F3CDC1F2F28DC2026F51B019572
:103EE0000D00019EF940B540AC4615006646FD4008
:103EF0003543019EB240561EB24115435D1B411A27
:103F0000AB42804140422B00081AD7E7FF07000070
:103F1000FFFF7FFF0000F07FFE070000A14DAC42D5
:103F200000D1A4E680252D042943D2E73D000E00F0
:103F3000203DEE4035000026202F03D04036F71BF1
:103F4000B9400E003243561EB24115430021D5E759
:103F50000A4315006A1E9541F8E7002F54D0351B1F
:103F6000002C17D104001C4300D105E16C1E012D6B
:103F700009D1D31A9A429241081A5242801A6246D3
:103F8000012400929AE7874FBD420AD1080013002E
:103F9000844C4AE0834CA642F8D080242404204379
:103FA0002C00382C2BDC1F2C18DC202507002D1BA7
:103FB000AF4000953D001F00E7402F43009DE040CB
:103FC000AB405D1EAB411F43D31B9A429241081A7E
:103FD0005242801A6246340000926FE725000700C3
:103FE000203DEF400025202C03D040352C1BA04065
:103FF00005002B435D1EAB411F430020E4E7034354
:104000001F007B1E9F41F8E7674E651C35424BD170
:1040100006000D001E431543002C24D1002E07D1AD
:10402000002D00D1ACE008001300624600921EE6AD
:10403000002D00D11BE69E1AB342BF41451A7F42B4
:10404000ED1B80273F043D4206D0D31A9A4292418D
:10405000081A5242801AE8E733002B4300D193E05C
:104060002800330003E6002E08D1002D00D18EE099
:1040700013006246080000924A4CF8E5002DFBD080
:104080004407DB0823438024C0082403204200D1D6
:10409000EDE6CE08264200D0E9E6D308624649079D
:1040A00030000B430092E2E69E1AB342BF41451A2C
:1040B0007F42ED1B80273F043D422DD0D61AB242ED
:1040C000AD416346081A6D42451B0093002D29D06F
:1040D0002800FCF751F80200083A1F2A27DC2023A9
:1040E00030009B1AD84033009540934005439442DA
:1040F00033DC141B611C1F291EDC202218002C003D
:10410000521AC840944093400443581E83412800EB
:10411000C84023430024AAE533002B43D6D118001E
:104120001C0032E03000FCF727F82030D3E73500E0
:10413000283885400023DAE72A001F3CE2401400BB
:104140000022202903D04032511A2A008A4013430A
:104150005A1E934100202343DCE71448A41A284048
:1041600085E5080013002C0081E5080013007EE5BA
:104170000C4C002003007AE5080013002C0054E7E3
:1041800020002300009472E5180000936FE5802062
:104190002B000095C0036FE7002003007CE51800AA
:1041A00088E5C046FF070000FE070000FFFF7FFF15
:1041B00070B5002822D0C317C5185D40C40F280071
:1041C000FBF7DAFF0F4B1B1A0A2811DC0B22290020
:1041D000121AD1400A002900153081402000120334
:1041E0001B05120B1A43C00702430800110070BDE3
:1041F0002A000B38824000212000F0E70300020073
:104200000100ECE71E04000070B54600360E4302C4
:10421000C50F701CFE2102005C0A0A4008420DD046
:10422000E0229200B2181B0B64071B0312051B0B44
:10423000ED0713432B432000190070BD002E18D149
:104240003300002CF1D02000FBF796FF0A280ADC8F
:104250000B2322001B1ADA4013000200153294408F
:10426000094A121AE1E703000B3B9C40230034008B
:10427000F6E7002C06D080221B0B120364071343C1
:10428000024AD2E72300FBE789030000FF07000092
:1042900070B504000A0008034900490D3A4D630F48
:1042A000400A4E1C1843D20FE3002E4255D0374D22
:1042B0004D19FE2D5FDC002D46DC2C0017345DDB34
:1042C00080241E2624042043761B1F2E2ADC304C1B
:1042D00009191C008B4088405D1EAB41F44003432C
:1042E00023430021580704D00F201840042800D091
:1042F0000433580104D50131FF2942D02548034039
:10430000DB08FF2904D1002B02D08020C003034327
:10431000C805FF215B02C90508405B0A0343D007BB
:10432000184370BD02246442651B0400EC40250064
:104330000024202E03D0184C091988400400234380
:104340005C1EA3412B43CCE7A401611E8C41C0003D
:104350005B0F204329000343C4E70343002902D134
:10436000581E8341BEE7FF21002BBBD08023C00035
:104370009B040343B6E7FF210023B3E70021012399
:10438000B0E70023BCE7C046FE07000080FCFFFF4B
:1043900082FCFFFFFFFFFFFBA2FCFFFFF8B5C0465A
:1043A000F8BC08BC9E467047F8B5C046F8BC08BCCF
:0443B0009E4670476E
:1043B40002030405060708090A0B0C0D0E0F101062
:1043C400000000000102030405060708090A0B0C9B
:1043D4000D0E0F100000000000000000000000009F
:0843E4000102030406070809A9
:0443EC00DD010008E7
:0443F000B50100080B
:0C43F40000005CC20000054300127A00CB
:04000005080027A127
:00000001FF
